:020000040800F2
:1000000000A0002081C00108FD4B0108BDAA010825
:10001000FB4B0108F94B0108F74B010800000000F9
:10002000000000000000000000000000F54B010887
:10003000F34B010800000000F14B0108416E01087C
:10004000E9C00108E9C00108E9C00108E9C00108E8
:10005000E9C00108E9C001087BC7000885C700089E
:1000600083C7000881C700087FC7000879400008DF
:10007000694000085940000849400008394000081C
:100080002540000811400008E9C00108E9C0010846
:1000900091440108E9C00108E9C001087DC70008D2
:1000A000956B0108E96B0108E9C00108D96B0108EB
:1000B000C96B0108B96B0108E9C00108E9C0010872
:1000C000E9C00108E9C00108E9C00108E9C0010868
:1000D000E9C00108093F0008FD3E0008F13E0008A4
:1000E00079C70008E9C0010881440108E9C0010896
:1000F000B56B0108E9C00108A56B0108E9C001085A
:10010000000000000000000000000000E9C001083D
:10011000E9C00108E9C00108E9C00108E9C0010817
:10012000FD3F0008E93F0008D53F0008C13F000837
:10013000AD3F0008E9C00108000000000000000019
:10014000E9C00108E9C00108E9C001080000000099
:10015000000000000000000000000000000000009F
:100160000000000000000000E9C00108E9C001082B
:10017000E9C00108000000000000000000000000CD
:0801800000000000E9C00108C5
:100188002DE9F04FA34BA44A2DED068B1A60A34B23
:10019800B1B000221A600AF073FF18B90BF05AFCCC
:1001A8000AF092FF0BF02CF89D4A137843F00103F4
:1001B80013709C4A9C4B116899424FF0000309D177
:1001C800136062B6994B1B6883F30888984B1B68C9
:1001D8009847FEE7974A984C4FF47001C2F8881088
:1001E8000C930D93236843F480332360236803F44E
:1001F80000330D930C9B01330C930D9B1BB90C9B87
:10020800B3F5A04FF2D1236813F4003318BF0123CC
:100218000D930D9B012B52D0DFF81892874F884B16
:10022800C9F80C30B846666A48F8046B636A43F04C
:1002380080736362636943F4FC0330AD6361032335
:100248008DF8723041F6FF7325F8503D4FF090401D
:10025800294603F05BFE4FF6FF7329467948ADF84F
:10026800703003F053FE2946774803F04FFE2946C5
:10027800764803F04BFE2946754803F047FE2946A9
:10028800744803F043FE28460DF065F81C9B724A3B
:10029800B3FBF2F3714A72491360724ADFF8F0E176
:1002A80000237B60C8F804305160F02189F82310DE
:1002B800072193604FF0010C11606B4928E06B4BEC
:1002C80012221A606368636063686360636843F45A
:1002D80080636360636823F47C136360636843F43A
:1002E800E8136360236843F0807323602268524BED
:1002F8009501FBD55A6822F003025A605A6842F009
:1003080002025A60636803F00C03082BFAD183E7F2
:1003180098023EF8135000F19040002245FA02F886
:1003280018F0010F18BF0CFA02F802F101021EBF03
:100338000860A1F804800C31102AEFD10133062B94
:10034800E6D14B4D4B4B95F8EB21DFF848911A70ED
:100358000020AB68C9F8003019F060F9464A92F8F5
:1003680000B000234FF0170A0BEB0301434A52F881
:10037800210003F1010840B1022380F806A0C371EF
:1003880080F8088001210CF0AFF84346032BEBD12D
:10039800002019F043F9A3693948DFF8A08043F039
:1003A8000103A361402200211EF0F2FA4FF0FF334F
:1003B800FB60C8F80F30D9F800301C0711D595F844
:1003C8004C32012B0DD816F0805600F04B8508E012
:1003D80093F84F22012A04D1002283F84E220CF010
:1003E80065FB642016F0E8FCC82200212548264E4B
:1003F8001EF0CEFA0024B046A1590023234850F835
:10040800330081424FEAC30246D108EB020393F856
:10041800940045E0D41A00207DB00008D81A0020C6
:100428001D5C0020FC9F0020EFBEADDE00D8FF1F42
:1004380004D8FF1F00ED00E000100240A8060020CD
:100448000005FA050004004800080048000C0048B0
:10045800001000480014004840420F000C340020EF
:100468003F19010010E000E0B03E002000200240EB
:1004780080400020D61D0020F8150208FC1502084F
:10048800301B00208C320020ECEA01087CEB0108CC
:1004980026F20108DC1F002001330A2BAED1002010
:1004A8000C3418F04DFF902CA6D1A64C04F1900600
:1004B80020790BF089FF0C3414F8032C14F8041C71
:1004C8000BF0D6FFA642F3D19F4BD9F80040DFF8D6
:1004D800A492DFF8A482C3F800909C4B04221A70FF
:1004E8000021302240461EF053FA142388F80030C9
:1004F8000223012188F82430954B88F8181095F8C4
:100508000580944883F80080A9F52A737B61A9F5D2
:10051800E8730360A00658BF8F4B904A57BF03EBA0
:10052800C80391615B7893618D4A04F0400600230B
:1005380040F2DC5122F813100133082BFAD11A22A9
:10054800002115A81EF024FAB8F10E0F03D008F008
:10055800EF03082B02D101238DF86630012016F035
:10056800DBFD18B14088003018BF012000F0010001
:100578008DF85900022016F0CFFD18B140880030E0
:1005880018BF0120C4F340038DF85C30C4F3403336
:1005980000368DF85430C4F3C03318BF012600F07C
:1005A80001008DF8573014F400638DF85A008DF867
:1005B8005E6004D095F822325A1E534253418DF89A
:1005C8005830C4F300438DF85F30C4F3C0038DF88E
:1005D8005630BB69003318BF01238DF86030C4F36F
:1005E80000538DF86130B5F8D230ADF86430B5F805
:1005F800E030ADF8623095F8E33004F001088DF88A
:10060800558004F0080643B9564B93F8E23013F0CE
:10061800FB0F0CBF0123002300E0012395F8E22023
:10062800059312F0FB0F14BF012100218DF85D1016
:100638008DF8672013B14B4BB3F8DE30ADF8683056
:10064800B5F8D030ADF86A30E30442BF454BB3F893
:10065800DA30ADF86A30042A06D14FF480500CF035
:10066800EBF90023ADF86A303F4B95F898221A70E1
:10067800002164223D481EF08BF99DF86630002B5E
:1006880014BF02220022B8F1000F00D106B10132D6
:100698002C4B2C4E354C03EB8203D3F8E0309A1EDA
:1006A800163306930023049202930393049B33F8B2
:1006B80002BF04934FF6FF739B4500F0B6819DF887
:1006C8005A305FFA8BF03BB10C2303FB00631B79B4
:1006D8002A3B012B40F2A4819DF85F305BB10C23CB
:1006E8004343F218F158224B994200F0998113794B
:1006F800182B00F095819DF85C3033B10C2303FB77
:1007080000631B79142B00F08B819DF8573033B1AF
:100718000C2303FB00631B79222B00F081819DF8D9
:10072800583033B10C2303FB00631B79152B00F001
:1007380077814FEA1B2BBBF1020F1FD19DF8543074
:1007480021E000BFECEA0108C4260020C40D002007
:1007580084160020D033002024F30108A8060020C6
:10076800700D00208040002044310020C80D00207A
:10077800002C014034430020CC260020BBF1010F9F
:1007880004D19DF85530002B00F04A810C239DF8C8
:1007980060204343F51852B19DF866203AB9C21F4C
:1007A800012A04D8F258B74B9A4200F01B81BBF1DA
:1007B800010F5FFA8BF347D14FF00C0A0AFB00FADE
:1007C800B14BDFF8D48203EB0A0953F80A300293DD
:1007D8000027AE4B99F8040088F81C70FF22C8F86F
:1007E80028501F705F609F60DF601F6483F844209B
:1007F80083F8452083F8467083F8477083F848707B
:100808000BF0E2FD0222827180F807B0077299F8B6
:1008180008100BF069FE3A4699F80510029815F091
:1008280091FB284610F0D0FA994BC8F82C30994B18
:10083800C8F83030C8F8347008F1300208F12C01DB
:10084800284616F0CFF9EBE0022B48D19DF80C2092
:10085800914B09931C274FF00C0A57430AFB00FAE7
:1008680003EB070806EB0A0B4FF00009012188F893
:100878001D2088F81C109BF8040088F81E9088F842
:100888002690C8F82850089207910BF09DFD089A09
:10089800079981710132C17102729BF808100BF03F
:1008A80023FE4A469BF8051056F80A0015F04AFB45
:1008B800284610F089FA099B784AC8F82C201F446A
:1008C800774AC8F8302007F12C01C8F834900A1D7F
:1008D800284616F087F9039B01330393A0E0032B06
:1008E8007ED19DF855309DF86720C3B1BAB14FF05D
:1008F8000C0A0AFB00FA644B029953F80A308B423F
:100908000DD1531E032B0AD8DFE803F002060406B4
:10091800082102E0482100E01821624B19709DF877
:100928005D30BDF868004BB3022A94F8019007D0F7
:100938005D4B5E4F032A16BF1F464822082201E07E
:100948005B4F1822D1B2DFF8748138B1594B5A4342
:10095800BDF86A30B2FBF0F292B202E003464FF6FD
:10096800FF7228460BF0E6FD48F8290058F82930B0
:10097800DF60A378192204EBC30327E0042A677811
:1009880011D14D4AB2FBF0F2182192B228460BF071
:10099800D1FD4A4B43F82700494BC360A3780D2289
:1009A80004EBC30312E0BDF86A30424AB2FBF0F22E
:1009B800012192B228460BF0BDFD404B43F82700B9
:1009C800404BC360A378092204EBC3035A71A37890
:1009D800627804EBC3010A7101328D6062701DE018
:1009E800042B1DD1A3782778BDF8622004EBC3033C
:1009F80001211F7128462F4B93FBF2F2BDF864309A
:100A080092B20BF097FD304B43F82700A37804EB24
:100A1800C3020A2151712278013222700133A37076
:100A2800069B049A93427FF441AE059B274E83F0C0
:100A38000102274B1A70274B1D78A5F117030024D4
:100A4800022B34704AD8DFF850C0DFF88CE0DCF8AD
:100A580014302344D3ED007AF5EE407AF1EE10FA23
:100A680004D10D4CA369002B58D150E00FCB04EBF7
:100A78000E0787E80F00337810340133C02C337029
:100A8800E5D1EEE700040040ECEA0108E01A002096
:100A980095C00008F1C10008A806002095C200080A
:100AA8006DC00008C801002055C30008F1C2000845
:100AB80029C3000840420F0000366E014032002072
:100AC80031C2000821C20008701B0020AB3400208E
:100AD8008832002084160020A41500209A4B13F8B1
:100AE80035E086F800E003EBC503D3F804C0BCF199
:100AF800000FB6D0DFF890827445B2DA230103EB19
:100B0800080763440FCB013487E80F00F4E78F4BE5
:100B180002931A6812F4805F26D11FE08C4B8D4A2D
:100B280013F83500107003EBC5035F68002FEED093
:100B3800DFF858E200238342E9DAC3EBC3017A18ED
:100B480001EB0E0CD2F8008041F80E809188ACF8C9
:100B5800041092798CF806200133ECE705F0EF03D6
:100B6800082B7D4B1FD120E03278012AF6D97B4B28
:100B780003EB02121032F6EE007A10339A42EDD0EF
:100B880013ED047A27EE277A03ED047A13ED057A3C
:100B980027EE277A03ED057A13ED037A27EE277AF5
:100BA80003ED037AE9E70E2D08D11A7842F0100216
:100BB8001A70182D08D115F029FF05E01A7822F0CF
:100BC80010021A70192DF5E7654D15F001FF2B7805
:100BD8003F2043F004032B700BF0F6FB614A0395AA
:100BE8001060614A0121117038B11122827102220C
:100BF800C271002202720BF077FC002014F0D0FFC3
:100C080000200BF004FE01200BF001FE26200BF063
:100C1800DBFB074627200BF0D7FB544D0646752013
:100C280018F08EFB2B6B23F010032B632B6B43F018
:100C380010032B634FF001084FF00D09092387F8C3
:100C48000690FB7187F80880384604221E210BF0B5
:100C58000FFC0A2386F80690F37186F80880304660
:100C680004221E210BF004FC414B424E1A6822F06C
:100C780001021A601968404A0A401A603F4A1A611C
:100C88001A68002142EA08021A609960D9609960DE
:100C98009A6842F400429A601A681A605A6822F008
:100CA800784222F400425A601A6822F400321A602C
:100CB8001A6842EA08021A60029B1427D3F800A0B7
:100CC8003A4630461DF064FE0AF400491AF0020F55
:100CD8000AF40068304618BF3770B9F1000F01D028
:100CE80022237371B8F1000F01D01523C373244F69
:100CF800DFF89CA04FF00F0900264FF0060817F800
:100D0800010C002852D00BF05FFB4FF0000B80F86D
:100D1800068080F8079080F808B017F8010C0BF0EF
:100D280053FB13210BF0E0FB17F8011C5B46154839
:100D380010F8130088424FEA43022BD10AEB020352
:100D480093F8F1302AE000BF24F30108DC1F0020EB
:100D580040F201085C33002038190020AC1500204F
:100D68001D5C0020402A0020442A00200010024078
:100D780000540040B81D0020FFE0CF00300E5000A6
:100D8800B91D0020DCEB0108A41500205D3300200C
:100D9800ECEA01080133272BC9D1002307223B7055
:100DA800FA70731C01227E70BA70DEB209F1010973
:100DB8005FFA89F9B9F1130F07F105079FD1EB6ABB
:100DC80023F4F873EB62EB6A43F4D873EB623C20CC
:100DD80018F0B6FA212018F0B3FA7E487D4D0CF0D1
:100DE800FCF91CA80CF0CEF97B4B1C937B4B1D9394
:100DF800022E4FF0000334BF1A46802221924FF48E
:100E0800807222924FF480622392202228462492F4
:100E18001CA94FF400521E93209325922693ADF8F7
:100E28007C600CF0BCF92B6843F001032B606C4D1F
:100E3800AB6823F04053AB60AB6843F08053AB60C2
:100E48000A2015F0B9FFAB6823F08043AB60AB68AC
:100E5800AB60AB6843F00043AB60AB68604A002B03
:100E680038DAFAE75F4B93F84E32013B092B3FF62D
:100E7800B8AA2B200BF0A8FA182383710223C37198
:100E8800044606720121C8F8AC040BF02DFB20467D
:100E980001210BF0C7FA3C2015F08EFF95F84E2281
:100EA800504B9642BFF694AA002018F0B7FB0021D9
:100EB80020460BF0B7FA782015F05CFF012018F0F7
:100EC800ADFB012120460BF0ADFA782015F052FF5A
:100ED8000136E3E79368444923F0405393609368ED
:100EE80043F0005393608868404B034043F46833F1
:100EF8008B60D1683E4B3F480B4043F40053D360AE
:100F0800136B013E23F00F031E43166300F1140810
:100F180001234FF0380C4FF0070B4FF0060E1F253A
:100F2800C178002978D05E1C042B41780779F6B285
:100F38000ED803EB4303D2F830905B0005FA03FAAE
:100F480029EA0A0901FA03F343EA090313632FE0C4
:100F5800092B0ED8053BD2F834900EFB03F305FAA3
:100F680003FA29EA0A0901FA03F343EA0903536376
:100F78001EE00E2B0ED80A3BD2F838900EFB03F376
:100F880005FA03FA29EA0A0901FA03F343EA09030D
:100F980093630DE00F3BD2F83C900EFB03F305FA88
:100FA80003FA29EA0A0901FA03F343EA0903D363B6
:100FB800092921D90A399369936901EB41010BFA8F
:100FC80001F923EA09039361936907FA01F11943C7
:100FD800916120E00804024040010050CC1D00202F
:100FE800000100508040002000030050E010FCFF8A
:100FF80007C0FFFDB81D002001395369536901EB93
:1010080041010CFA01F923EA0903536153690331D9
:101018008F401F43576133460530804580D1B54B1B
:101028009A6842F001029A601A461168B14BCF07DC
:10103800FBD5DA68B04D22F00202DA60DA6842F0D5
:101048000202DA60DA6842F00102DA609A6842F075
:1010580004029A60D5F8C831002B41F07381D5F8A5
:10106800CC21002A41F06E81D5F8D021002A41F028
:101078006981029B1B689E031BD5C82015F09CFE46
:10108800AE2019F098FD08B117F036F89B4E84F899
:10109800FC00C82015F090FE002333607360B36035
:1010A8000223F37010F091FA15F048FE944B0344B4
:1010B800B36095F8ED310493924B95F8D59195F876
:1010C800EE61B5F9F0B1B5F8D88195F8DAA18E4D91
:1010D8008E48059300271F605F609F60182239467D
:1010E8001DF056FC39461822A4F8FD7005F58070ED
:1010F8001DF04EFC864AC4F81821232015F05CFE2A
:101108000DF12F020121752001F028FEB0B1814BAD
:10111800C5F80431804BC5F808310EAA43230121D4
:10112800384685F8003101F019FE9DF8383003F093
:101138007E038DF8383000283FD147E095F81C71C0
:101148000FBB29200BF040F9142282710E22C271C4
:1011580007720D21C5F820010BF0C6F96F4A1388F4
:1011680023F040031B041B0C1380138823F038035F
:101178001B041B0C138013889BB243F0400313809D
:10118800012385F81C311CAA0121752001F0F6FD08
:101198009DF87030A3F17002012A01D9AF2B5DD1FF
:1011A800052384F8FD30432384F800315C4BC4F8F0
:1011B80004315C4BC4F8083150E0682B06D1012398
:1011C80085F8FD301D2385F8003147E09DF82F3064
:1011D80003F07E03682B8DF82F303AD102230621C5
:1011E80084F8FD301CAAD4F80431084698479DF8C5
:1011F80075209DF8733092005B0003F0020302F043
:1012080004021A439DF8713003F00103134311D00F
:10121800012B01D1002302E0022B03D1012384F822
:10122800FE301BE003F00303032BF7D0032015F077
:10123800CDFD13E0344B10AAD3F8043101210C2062
:1012480098479DF8403013F00F03EFD0042BE5D1F9
:10125800E0E7702B04BF042384F8FD30324A94F889
:10126800FD0000231370031F012B00F2ED81274BB3
:101278002E4919602E4959602E49D9602E491961A5
:1012880003232E49137007230B702D4B1A6842F065
:1012980001051D604FF0010E4B460B2B28BF0023A4
:1012A8000EFA03F740F202653D40ADB940F2FD1574
:1012B8003D408DB104280DD1124B224818602248B8
:1012C8005860224B0320187008234B701C4B0243B4
:1012D8001A6008E00528EFD0012B4FF00009DBD891
:1012E8001A4B83F80090042E66D8DFE806F0316EBA
:1012F800313131000001005080400020B828002022
:10130800404B4C0054200020A8060020681D0020F7
:101318002AEC0108652D00087B2D000800300140EB
:10132800852D0008052F0008500E00207530000894
:10133800CD270008B727000890C1793D7105002026
:101348005020002019310008152800089C5B002057
:1013580094F824619C4D002E40F0F187142015F07C
:101368002BFD05F225130122D021762018F072F802
:1013780095F82531582B28D105F594731822882122
:10138800762018F067F83122F421762017F0F6FF5E
:10139800012385F824318D4B8D4A9A608D4A5A6015
:1013A80045F6D8125A808C4ADA608C4A1A618C4AFF
:1013B8001E805A6100F0C3BF012E06D0894B8A4AAD
:1013C8009E70136843F004031360874D2B689807D9
:1013D80005D586484FF4807303810368984718F051
:1013E800FF0007D0072816BF4FF47A737D234FF00C
:1013F800010A00E07D230AF1FF3284F844217C4C85
:101408007C4E03FB0AF3636123689847337823B95A
:10141800794F3B88002B3CD133E06369002BF7D030
:10142800764FDFF81482DFF814924FF0000A3B7809
:10143800012B0CD13378616900EE103A704B1C20F7
:10144800B8EE400A00FB0A3019F02EFF13E053B93A
:10145800D4ED057A9FED6B7AF8EE677A67EE877AB6
:10146800C9ED007A07E04FF4F870A28A317800FBE2
:101478000A800AF0D5FD0AF1010ABAF1030FD6D1A4
:10148800C6E7614B1B8823B9049C604B4FF00002F0
:101498002DE06369002BF7D0DFF8A491DFF8A48171
:1014A80000263B88D9ED000A616900EE103A08EB86
:1014B80006000122B8EE400A19F08FFE524B54483C
:1014C8001B88616900EE103A524B30440122D3ED7B
:1014D800000AB8EE400A1C3619F07FFE542EE0D1FF
:1014E800D2E7A11E022906D9012C3CD900241A7082
:1014F800464E002CF5D100270DF1C00810213720E9
:1015080008F8507D01F0FAFC0A2015F055FC0D2171
:10151800242001F0F3FC0A2015F04EFC30216A204B
:1015280001F0ECFC0A2015F047FC4246012100209E
:1015380018F0EAF8002800F076879DF87030482BFC
:101548000ED1354B354A1A60354A5A600623337036
:10155800244B0422DA702B6843F008032B6002E066
:10156800002000F060BF2F4B93F8C5210AB12E4927
:101578000A7093F8C6210AB12C490A7093F8C7314A
:1015880003B133702B682A4913F0080F19D064226D
:101598009BFBF2F302FB13BB0FFA8BFB07EE90BA2F
:1015A800B8EEE77A07EE903ADFED226AF8EEE77ACE
:1015B800E7EE267AB2EE047A67EE877AC1ED007A12
:1015C80045E000230B6042E0A8060020083D00200B
:1015D800B527000841370008712D0008192D0008AB
:1015E800FD2500087105002050200020542000200F
:1015F800681D0020741A0020761A00207A1A00202C
:10160800A80E0020BD378635781A00206C3E0020D1
:1016180048150020801A0020583E0020452C00085C
:10162800ED2D000880400020500E00209C5B00201B
:101638008C5B00208988883C240F0020FC0E002049
:101648007C1A0020F4140020012015F0BFFB039B36
:10165800039A1B78BD4D43F002030020137017F066
:10166800DDFF0A2417F0CDFF192015F0A5FBD5F8EA
:10167800CC35B64F13F4803F02D1012014F090FA14
:10168800192015F099FB002014F08AFA013CE9D1E1
:10169800AF4D204617F0C2FF2B68190705D5AD4B93
:1016A8001B689847AC4B01221A70AC4B9FEDAC8A73
:1016B8001B68AC4E1B7B00EE103AB8EEC00A20EE59
:1016C800080A0AF073FCA84B9FEDA87A83ED000A7C
:1016D800A74BD3ED047AA74B67EE887AC3ED007A5F
:1016E800059B1B8907EE903AF8EEE77AA24BC7EE06
:1016F800276A9FEDA27AC6EE877AC3ED007A15F0C5
:10170800C7F91E22FF2130461DF042F99C4B2D6877
:1017180001221A7000223270029A116811F4800FA7
:1017280001BF02221A701B227270AA07304608D520
:101738001A7801268654961C0132D2B21E700226EF
:1017480086546E0704D51A78561C1E7003268654D4
:1017580015F00A0F0CD01A7804258554551CEDB2E3
:1017680005264655D51C0232D2B21D700625855471
:101778000D0608D51A7809258554951C0132D2B270
:101788001D700A258554CA0504D51A78551C1D7084
:101798001A2585547D79082D01D00E2D04D11A788B
:1017A800561C1E700B2686541A78561CF6B24FF03B
:1017B8000C0E11F4803F1E7000F802E009D0DFF82B
:1017C800C0E102328EF80020664A4FF00E0E02F891
:1017D80006E00A0304D51A78561C1E70192686548A
:1017E8001A78561CF6B24FF01D0E11F4805F1E7069
:1017F80000F802E009D0DFF888E102328EF8002014
:10180800584A4FF01C0E02F806E08E0604D51A78E6
:10181800561C1E70072686544A0704D51A78561C8B
:101828001E70102686544E0304D51A78561C1E7056
:10183800122686544A0507D597F8D82222B11A7875
:10184800511C197013218154182D0BD11A781621A7
:101858008154511CC9B217264654D11C0232D2B247
:1018680019708554982200214648DFF84081464D7A
:101878001DF08EF80FF0ACF8444B454A1A60454B02
:10188800B7F8DC1019804449DFF818C100230B8031
:101898008B7042490A60424A1370B7F8542211B259
:1018A800DCF8000028F8131000F5967045F82300BE
:1018B8000133122BDFF8F4E03A4EF1D13A4D2868A3
:1018C800C30458BFB7F96012AEF806101F4901F1FA
:1018D800500C91F81D35FBB991F81F8591F820350A
:1018E800984519D2B8F1000F08D008F1FF3808EB75
:1018F800880808EB880808F5617306E0013303EBF4
:10190800830303EB830303F5617391F81E8508F1E4
:1019180004089BB22EF8183004318C45D9D103073E
:1019280040F15C8197F84C12082900F25181DFE8F8
:1019380011F009003F00460077009800B900B9008F
:10194800FC00270145F2F05234E000BF804000203F
:1019580050200020583E0020803E0020B01A002071
:1019680035FA8E3C1E200020905B00200AE81C41BE
:10197800681D00207C5B0020343E002000401C468F
:101988001D200020FC2600200418002080180020BC
:10199800C44200207E180020E81F0020D81F002025
:1019A8004C180020302A0020DC1F0020A42700202B
:1019B80042F6F822AF4B1A800FF0B6F907E1AD4BAB
:1019C80042F6F8211980AC490A23120192FBF3F27E
:1019D8000023A2F5B06241F823200133122BFAD17B
:1019E800A64AA7491160A74A4020137015F0D2FBF8
:1019F8008046002800F0EC800FF0B6FC97F84D32D6
:101A080098F900E0002B0CBF0622072200280CBF23
:101A1800012303230192009307469B4B9B4AA7E0AF
:101A2800944B42F6F8221A80944B994A1A60954BC7
:101A3800102240201A7015F0ADFB0746002800F070
:101A4800C7800FF091FC002200280CBF012303235C
:101A580097F900E00192009307464FF4E1338D4A6D
:101A680086E0844B42F6F8221A80844B8A4A1A6030
:101A7800844B082240201A7015F08CFB074600287A
:101A880000F0A6800FF070FC002200280CBF012394
:101A9800032397F900E00192009307464FF4E133DE
:101AA8007E4A65E0734BDFF84C92DFF84C82DFF832
:101AB8004CC2DFF84CE27A4F7A4842F6F8221A8094
:101AC800704A0C23137006294FF0000289F8002091
:101AD80088F800208CF8002008D01B223B700523D2
:101AE8008EF8002003704FF4E13806E02122DFF879
:101AF80014828EF800203B700170604B6A4A1A60AD
:101B0800402015F047FB0746002861D00FF02CFC59
:101B1800002200280CBF0123032397F900E001925B
:101B2800009307464346614A22E0524B44F620623E
:101B38001A80524B5E4A1A605E4B4FF0000883F8D9
:101B48000080504B0E2240201A7015F023FB0746E8
:101B580000283DD00FF008FC574A97F900E04045AF
:101B68000CBF012303238DE8080107464FF4E13336
:101B78004021704615F0D2F937B3504B186023E076
:101B88003C4B41F27C521A803C4B4D4A1A603D4B0B
:101B980010221A704B4B00271F704B4B28224020F5
:101BA8001A7015F0F7FA98B1032390F90000474A24
:101BB800019700934021464B464F15F0AFF901219C
:101BC800386014F08FF93868003018BF012028B940
:101BD80008200AF031FF294B3F4A1A602B68294A2E
:101BE80013F4804F04D01221117024493B48086037
:101BF80042F20101194003F0010003F4005781B1DA
:101C08001C4944F6206EA1F800E027B108211170A4
:101C18001A49334F0F6020B10C2111701749314810
:101C2800086011781F06A1F10401517040F1AA80E3
:101C38004FF000082C4F2D48DFF8CC9087F8018032
:101C480015224146C7F80480C7F808801CF0A0FE9A
:101C5800274BC9F80030404616F0AAF83368FB60F5
:101C6800022015F097FA002850D180200AF0E4FEEF
:101C780081E000BF320E0020501E0020FC0500202D
:101C880055F50008F4270020A086010035F6000865
:101C98009DCC0008F9CD000885CC0008B1CD00081E
:101CA800A11C00201B1D0020C5CB0008DDCC0008AE
:101CB800D5F50008AD1F002075F70008FC270020A7
:101CC800BDF50008681F0020691F00208DF6000878
:101CD80048E80100081A002089F50008ADF5000859
:101CE8009DF500088DF50008843E0020ED070020D2
:101CF80025430020A21C0020191D0020181D0020CB
:101D08001A1D002090D00300A43E002042797B7861
:101D1800DFF820C141464FF00C0808FB03CE9EF8BF
:101D280001E0964507D00133DBB2042B4FF00101E7
:101D3800F3D9002300E001B17B70D9F800307A783C
:101D48001B7890F90000002B3A4B4FF00C0707FB6B
:101D580002330CBF0121032100225B788DE80600C5
:101D6800022115F0DBF8344B186000283FF47DAFF2
:101D7800012016F01DF8314B314A1868314B1A60B2
:101D880016F02EF9304F314BC7F85C312B68DFF86D
:101D9800D0A04FF00008D8038AF8008040F1E18015
:101DA80011F04EF94FF0010940F22A32414607F589
:101DB800B0708AF800901CF0EBFD4346602224497D
:101DC800484602F0CDF818200AF0FEFA162383716F
:101DD800204ADFF888C0C7F88C040223C37180F852
:101DE800088007F5B07A52F838301B4963454FEA46
:101DF800C80E01F1900B04D10EEB010393F8952066
:101E080005E008F10108B8F10A0FECD100222E21F3
:101E18000AF02EFB114800235BF83310DFF83C90E2
:101E280081424FEAC3021DD10B4B134493F894002F
:101E38001CE000BFB4140208B4280020FC280020CD
:101E4800AA420020881A0020A80600206C4300201F
:101E5800D72800087CEB0108ECEA0108002C0140B7
:101E6800445C002001330A2BD6D1002017F068FA11
:101E7800B9F80030D848DFF8A4B323F45C731B0426
:101E88001B0CA9F800301D23C9F82C300223A9F82F
:101E980028304FF000080123A9F8308010A9C9F8AC
:101EA80014306022ADF8443002931092ADF84680A9
:101EB800CDF84880ADF84C80ADF84E80ADF8508034
:101EC800ADF852800BF00CF9D9F8182042F008024E
:101ED800C9F81820D9F8442042F40042C9F844202F
:101EE80058460BF07AF91CA80BF04CF9BB4A1C9227
:101EF80010221E9240F22A32ADF87C2080222192D4
:101F08004FF4807222921CA94FF400525846259231
:101F1800CDF874A0CDF88080CDF88C80CDF8908075
:101F2800CDF898800BF03BF9D9F80C20029BAC490E
:101F380042F40072C9F80C20DBF8002042F00202DB
:101F4800CBF8002087F89034FF22631824F801802A
:101F58000434802C9A70DA70F7D101F0A1FE01F0F8
:101F68009FFE2B68590568D5DFF8B4829D4BD8F8D9
:101F780000201A60042015F00DF90421C7F8940414
:101F880015F0DEF8984BD8F8002087F89804082058
:101F98001A6015F0FFF8954B954C1860082115F05C
:101FA800CFF82C2287F89904002120461CF0F0FC79
:101FB8008E2363704FF07C0AE0234FF07D09E370B5
:101FC80084F800A084F82B908A4C00212C2220460B
:101FD8001CF0DEFC8A236370A023E370864BD8F8DC
:101FE80000201A60202084F800A084F82B9015F0B7
:101FF800D1F82021C7F89C0415F0A2F887F8A004AE
:10200800102015F0C7F81021C7F8A40415F098F8A7
:102018007A4B87F8A8043B221A7001225A703A2298
:102028001A719F229A711E221A72A4225A720022D1
:102038009A72DA721A730FF0A4F92B689A0240F1B7
:102048009B804FF434796E4C6E48DFF8D0A14A4635
:1020580000211CF09DFCC02200236B49012001F0E7
:102068007FFF63694FF0904043F400336361436A34
:1020780023F00F034362436A43F0060343620223DB
:102088004FF000084FF4807B8DF83C308DF83F30DE
:102098000EA903238DF83D308DF83E80CDF838B079
:1020A8000BF014F9A36943F40063A361A4F5644435
:1020B80010A9238823F45C731B041B0C23809C2326
:1020C800E3620123A4F828806022A4F83080204627
:1020D8006361ADF8443002931092ADF84680CDF8B4
:1020E8004880ADF84C80ADF84E80ADF85080ADF822
:1020F80052800AF0F5FFA26942F00802A261626C00
:1021080042F40042626450460BF067F81CA80BF0DA
:1021180039F832491C9110211E91802121914FF4E8
:102128000051384B259150461CA91D93ADF87C9061
:10213800CDF88080CDF888B0CDF88C80CDF890802F
:10214800CDF898800BF02BF8E16841F40071E1605C
:10215800DAF8001041F00201CAF8001001F03EFD63
:1021680017F026FB294A029B87F8A93487F8AA3476
:10217800137843F0080313703E200AF025F90E2463
:10218800234A847100274FF0010880F80780202136
:10219800077210600AF0A8F91E4B2C2083F8008003
:1021A8000AF012F9DFF87C808471C4711A4C077246
:1021B8000D21C8F800000AF097F9238823F040039E
:1021C8001B041B0C2380238823F038031B041B0CDF
:1021D80043F0300328E000BF002C0140342C0140BC
:1021E800465C00203019002080190020CC190020FE
:1021F8005019002084190020E4190020C827002065
:10220800001002406A460020AD2500081D5C002031
:10221800382A00203C2A0020003800401C000240D8
:10222800841A0020342A0020238023889BB243F09C
:10223800400323804FF47A7014F0BEFDD8F80000F4
:102248000AF0EBF820460A233A4639460AF097FA8C
:10225800784C17F0F3FA40B1013CFAD1764B1A7E6C
:1022680083F8244001321A7606E0734B32685A61CB
:10227800012283F824201876704B714C0021997044
:1022880041F2142102225A705A50B4F8D8316D4ADA
:10229800013B9BB2052B9EBF012384F8EA3184F8E9
:1022A800DA31526994F8EA315343674A13602B686C
:1022B800664A13F4002318BF012313706379052BB2
:1022C80002BF634B4FF4C8721A800BF0B3F9614B2D
:1022D800C8221A80604A137843F0080313705F4AD3
:1022E800137823F0020313702A6840F602031340A0
:1022F8006BB15B4B5B4919605B4B032119705B4BFE
:10230800012119705A4900230B805A490B80930305
:1023180006D5594B06221A71DA7842F00102DA70B2
:10232800A3682B60554B01221A70554A137863F045
:102338007F03137031B0BDEC068BBDE8F08F042627
:10234800FFF73CB81BB208EE103AB5F9CC31DFED17
:102358004D7A4D4A09EE103AB5F9D031B8EEC88A2F
:1023680008EE903A28EE278AB8EEC99AF8EEE88A7D
:102378000021B0EE480A29EE279A68EEA78A117064
:1023880009F014FEF0EE409AB0EE480A09F0ADFDEF
:10239800B0EE408AB0EE490A09F008FEB0EE40AA55
:1023A800B0EE490A09F0A1FDF0EE40AAB0EE680AC5
:1023B80009F0FCFDB0EE409AB0EE680A09F095FD10
:1023C80069EE806A68EE097AF0EE665AEAEEA75A74
:1023D8002E4B29EE896A28EE007AC3ED035AB0EE37
:1023E800465AF1EE6A5AA5EE875AEAEEA67AA5EEA3
:1023F800867A2AEE099A2AEE400A28EE4A8A69EE77
:102408008A9A83ED009A83ED010AC3ED02AA83ED4F
:10241800045A83ED058A83ED067AC3ED077AC3ED86
:10242800089AFEF726BE012C7FF69DA8307000247E
:10243800FFF762B8A1860100002800203C4900206F
:1024480080400020681D0020AC3400204C3B002058
:10245800941800200C3E0020381900201C20002071
:10246800B01D0020964200204F200020700500205B
:10247800E43C0020E63C0020B82800208C1700200F
:102488001D5C002035FA8E3C2C0200208C1D00209B
:10249800334B344A1B68126830B51A60324A334CE1
:1024A8001168596051689268DA60314A9960116818
:1024B8001961516892689A612E4A59611168D96107
:1024C800516892685A622C4A196211881985518894
:1024D80059859188D288DA85284A9985116819869C
:1024E800516892689A86264A59861168D986516831
:1024F80092685A87234A1987118899875188D987FA
:102508009188A3F840101946D28821F8422F1E4A14
:1025180010780022824205DA34F9125021F8025F5D
:102528000132F7E7194A1288A3F86C20184A128872
:10253800A3F86E20174A1168A3F8741051689268BE
:10254800A3F87820144AA3F8761012681A67134A79
:102558001288A3F87A20124A5289A3F8662030BD5F
:10256800580B0020043E0020283B00207032002039
:10257800343B0020403B0020883400209C3400205D
:1025880014190020D81D0020AB340020D41D0020D1
:10259800F03C0020603E002024190020F05C002060
:1025A800700D00200168027B30B502230C6803FA25
:1025B80002F222420BD0064A0024147344682568AC
:1025C8004FF6FE722A402260027B93404B6030BD7A
:1025D800580B0020FF207047012380F845307047D2
:1025E800014B1868704700BF9020002001207047F9
:1025F800704770472DE9F74F6A4CDFF8ACE100915E
:10260800DEF810302188B4F90280C1EB231252435E
:102618004900C1EBE3011313B4F90420534308FB49
:1026280001F89B1303EBE82303EB83028032B3F535
:10263800FA384FEA22224FEAE37949F1FF39019249
:10264800B4F90820A361A8FB08AB08FB09F30BEB5E
:10265800430B02FB09F1D31708FB0311A2FB082364
:102668000B441F03160347EA1257B4F90A2002FB6A
:102678000BF1D3170AFB03130546A2FB0A01194401
:10268800020A42EA016292194FEA2123E6887B4155
:10269800003243F50043A2FB060106FB03114A1072
:1026A800CB1752EA030170D0B4F9100000FB0BF607
:1026B800C1170AFB0166A0FB0A013144B4F90E6098
:1026C80006FB09FCF71708FB07C7A6FB0889B944EE
:1026D8004FEA484A4FEA494B1AEB000A4BEAD83B03
:1026E8004BEB010BDEF81410B4F90C80C1F5801E19
:1026F8007646F71700264FEACE70F90716EB0A065A
:102708004FEAC80741EA5E0147EB0B0740F6354E32
:10271800861B61EB0707A6FB0E010EFB071119F0DC
:10272800D3FAB4F916204E13470B47EAC14702FB08
:1027380006FED31707FB03EEA2FB07237344564399
:1027480007FB0366A2FB07233344560E46EAC3166B
:102758003218B4F914604FEA636747EB0103714319
:10276800F71700FB0717A6FB00013944C60C46EA19
:102778004136B6184FEAE147B4F912005F41330A0F
:1027880043EA07630201134400E000230DB11B0A6A
:102798002B60009B13B11A46019B136003B0BDE880
:1027A800F08F00BFD0070020580B00207047044B63
:1027B8001A7E02F0FF0012B100221A76012070473B
:1027C800580B002037B5104B04465D6818786A46E8
:1027D8000621A847A8B19DF800209DF8013043EADA
:1027E800022323809DF802209DF8033043EA022348
:1027F80063809DF804209DF8053043EA0223A380F6
:10280800012003B030BD00BFA807002013B5104B4E
:1028180004465B686A4606213B209847A8B19DF8A4
:1028280000209DF8013043EA022323809DF802200E
:102838009DF8033043EA022363809DF804209DF845
:10284800053043EA0223A380012002B010BD00BF77
:10285800A8070020014B01221A767047580B002068
:10286800026D036B70B50446D5699BB9A90611D5ED
:10287800C36A1BB1908C80B298470BE0E169928CD7
:1028880040694E1CD2B2E6614254E169E268914265
:1028980028BFE361616BA1B92A0612D5636AA26AEF
:1028A8009A42236D09D0501CA669A062B25C1A85B1
:1028B8002369984205D3A16203E01A6822F08002D6
:1028C8001A602B0742BF236D08221A6270BD016887
:1028D800027B30B502230C6803FA02F222420BD0C5
:1028E800064A00241470446825684FF6FE722A4090
:1028F8002260027B93404B6030BD00BF455C0020E6
:102908000E4B2DE9F04193E8C0009D6888460024ED
:1029180006440744054444450EDA37F9142036F9CD
:10292800140035F914301344022293FBF2F3C01A51
:1029380018F08BFA0134EEE7BDE8F081580B00205F
:1029480070B5472018F0AAF9174B184C1B6813F4F8
:10295800002F06D06368164A1B681068C01A18F062
:1029680065FA144E144D307818F060FAE369286857
:10297800C01A18F06AFA236A6868C01A18F065FA6B
:102988000E4B188818F052FA0D4B188818F04EFAAA
:102998000C4B188818F04AFA337884F82C302B68D6
:1029A80063626B68A36270BD1C1A0020580B00207C
:1029B800043E00203E190020401900203C19002048
:1029C8003A190020800D00207FB52A4C2A4E2B4D45
:1029D8002B492C4A2C4B20B12C480088B0F5805F3D
:1029E80035D23068234E91F820101278019028785B
:1029F8008DF8080006F130058DF809108DF80A20C9
:102A08001B788DF80B300822294601A81BF096FF89
:102A180068B301AB03CB30636960532018F03EF90B
:102A2800206B18F003FA94F8340018F0FFF994F8C2
:102A38003530019394F83630029301A894F8373072
:102A4800039318F063F9114B00221A800FE03068E5
:102A5800206391F82010287812781B7884F83400C5
:102A680084F8351084F8362084F83730D5E704B078
:102A780070BD00BF580B0020182000203819002016
:102A8800E81F0020B817002066180020221A00202E
:102A980010B5064C23780BB9002010BD14F04EF980
:102AA8006368C01AD0F5FA50F6D410BD78400020FB
:102AB8002DE9F04190F84440002380F844301CB3DD
:102AC80016490A681AB30A68052A23D1144BDFF895
:102AD80054801F6800F130051E46D8F8003023B92D
:102AE8002146284612F087F800E000203368DB1BF7
:102AF800241A322BE4B2054401D8002CEDD1B4FAE3
:102B080084F04009BDE8F0810120BDE8F08110465D
:102B1800BDE8F0811846BDE8F08100BF70200020B4
:102B2800302A0020D4200020002280F84520BFE76A
:102B380090F84420531C0244DBB280F8443082F8F9
:102B4800301090F845200AB1132B00D9B0E7704730
:102B5800114B2DE9F04114461A680E46CAB11B689C
:102B6800052B16D10D4BDFF838801F681D46002C49
:102B78000FDDD8F8003023B9E1B2304612F03BF847
:102B880000E000202B68DB1B322BA4EB000406447A
:102B9800EDD9BDE8F08100BF70200020302A002068
:102BA800D42000202DE9F341204D214E2F46214B02
:102BB8001A680AB91C6800E0012495F838101E4804
:102BC800002200EB010ED0B2844202F1010207D9C3
:102BD8000DF1080C84441EF800000CF8040CF2E710
:102BE8001A68121B1A60D3F80080214487F838103D
:102BF800B8F1000F12D14021032012F0A7FE33686C
:102C080023F4804323F070039BB283F4405343F4CE
:102C1800004343F08003336085F83880002CC6D029
:102C28009DF8040002B0BDE8F08100BF580B0020F9
:102C38000C5C0040902000209420002007B5002064
:102C480016F07FFD142014F0B7F80F2016F079FD68
:102C58000A2014F0B1F8032101AA102016F054FD3F
:102C68000A2014F0A9F89DF904209FED265ADFEDFB
:102C7800265A264B06EE902AF8EEE66AF7EE007A18
:102C880076EEC56A9DF90520B0EE677AA6EEA57ABC
:102C9800002006EE902AB3EE0E6AF8EEE66A27EEFA
:102CA800067A76EEC56A83ED007AB0EE677AA6EE0C
:102CB800A57A9DF9062027EE067A83ED017A07EEBC
:102CC800102AB8EEC77A37EE457AE7EE257A67EE2E
:102CD800867AC3ED027A16F034FD0A2014F06CF8F7
:102CE8000DF103020121022016F00EFD0DF1030281
:102CF8000121092016F008FD022016F022FD03B07C
:102D08005DF804FB000000430000803B0000002049
:102D180007B506226B46F721762016F09BFB9DF837
:102D280001309DF800100C4A1B0143EA01339DF85D
:102D3800021043EA111353619DF804309DF8031003
:102D48001B0143EA01339DF8051043EA111313618F
:102D580003B05DF804FB00BF580B002013460A4679
:102D68000146682016F076BB3122F421762016F051
:102D780005BB0A460146682016F000BB2DE9F04164
:102D88000C4C0D4D8046206816460F4609F040FB56
:102D980048F08001284609F01FFD3B4600223146D5
:102DA800284609F0ECFC206809F037FB0120BDE853
:102DB800F08100BFC80700200030014010B504466C
:102DC800FFF766FE08B113F0D5FF054B00221A7015
:102DD800597822464920FFF7D1FF012010BD00BFD6
:102DE800784000202DE9F743DFF8088104460127E1
:102DF8000020C14698F839303E4E012B354609D09F
:102E080002D3022B22D028E00121022016F0ADFCCB
:102E1800012318E0FFF73CFE08B1002067E0684690
:102E2800FFF7CCFF9DF8003008B19B0706D10023BF
:102E380089F83930002FF0D01F46DBE7072103203F
:102E480016F093FC022386F83930E6E7FFF720FEF8
:102E58000028E2D16846FFF7B1FF0028DDD09DF8D1
:102E6800062012F00302D8D19DF801109DF8003019
:102E78009DF8030085F8392043EA01231BB25B4221
:102E88001D4907EE903A91ED007AF8EEE77A67EE81
:102E9800877A91ED017AFDEEE77A17EE903A238072
:102EA8009DF8023043EA00231BB25B4207EE903ADA
:102EB800F8EEE77A9DF8050067EE877A91ED027AD9
:102EC800FDEEE77A17EE903A63809DF8043043EA06
:102ED80000231BB25B4207EE903AF8EEE77A012036
:102EE80067EE877AFDEEE77A17EE903AA38003B093
:102EF800BDE8F083580B002000000020F8B50A4C0C
:102F08000A4D074620680E4609F082FA39462846D7
:102F180009F062FC3146284609F05EFC206809F099
:102F28007CFA0120F8BD00BFC8070020003001402E
:102F38002DE9FF47454D95F83A30002B40F0828047
:102F4800434B1B68002B7DD0187809F03DFA0446E6
:102F580009F072FA0746002874D11423082601469E
:102F6800A3712072E671204609F0BEFA394BEB6373
:102F7800204609F06AFA002855DB374BDFF8E8905D
:102F880005F13C0243F8202019F80080204609F09A
:102F980066FA8246204609F058FAC1B201F00300E9
:102FA80001F0FC0101F1804303F58033800099684A
:102FB8000F22824021EA02029A6099685FFA8AF237
:102FC80002FA00F008439860204609F03EFA4FF0F4
:102FD800010A20F01F01214A00F01F030AFA03F337
:102FE8008B5002900DEB06008DF80C708DF80D607B
:102FF8008DF80EA016F01AFB194B13F80820F02ACA
:1030080011DDF02203F8082009EB080301A81B7C56
:103018008DF8043003238DF805308DF806708DF88F
:1030280007A016F091FA204609F00FFA002806DBEF
:103038000C4901220B6802FA00F0184308600123CA
:1030480085F83A3004B0BDE8F08700BF580B00207F
:10305800C00700205D280008301B00201404014030
:10306800B40600200004014088EC010870B5264C25
:103078000546FFF75DFFFFF75BFFA36880216B2024
:103088009847642013F098FEA368072168209847A2
:10309800642013F091FEA36800216B2098476420F8
:1030A80013F08AFEA36801216B2098470F2013F0C4
:1030B80083FEA36818211B2098470F2013F07CFE7D
:1030C800A36818211C2098470F2013F075FEA368E9
:1030D80029461A2098470F2013F06EFE0B4AA36862
:1030E800117819209847642013F066FEA368102110
:1030F800372098470F2013F05FFEA368012138207E
:10310800BDE87040184700BFA8070020EC07002062
:1031180010B50446FFF70CFF4FF40063238110BD80
:1031280010B4047B016843690222A2404A604168E6
:1031380008684FF6FE7202400A60596A9A6A91421C
:1031480004D018465DF8044B12F036BD012283F80E
:1031580044205DF8044B70472DE9F04FBE4FBF4E39
:103168003888BF4C8BB0002840F0B98096F8C73536
:10317800012B05D196F8C805A0F120025042504114
:1031880000F00100FFF720FCFFF782F92568DFF85F
:10319800D8B2492017F082FDB24B2F46186817F0B5
:1031A80045FE57F8040B17F041FE384616F088FB29
:1031B80005F1100016F084FB05F11C094FF010080A
:1031C8004FF0010ADBF80020A74F0AFA08F3134270
:1031D80003D0D9F8000017F038FE08F10108B8F15B
:1031E800130F09F10409EDD1032105F1280017F0A7
:1031F80030FEB6F8CC30B5F92E00C01A17F016FE1E
:103208003B68DB0408D5994BB5F86C001B88181A85
:10321800C0F30D0017F00AFE3B68980403D5B5F813
:103228006E0017F003FE3B68590504D5032105F12C
:10323800740017F00EFE3B681A0502D5286F17F0C8
:1032480004FE3B681B0403D5B5F87A0017F0EEFDC1
:10325800032105F1300017F0FCFDA846032105F114
:10326800360017F0F6FD042105F13C0017F0F1FDDA
:10327800B6F8CC3038F9440FDFF80C92C01A17F0C2
:10328800D5FD012699F800309E4208DA38F9020F78
:10329800B5F94430C01A17F0D8FD0136F2E73B689B
:1032A8009E0505D5B5F96600A0F2DC5017F0CDFDF6
:1032B80022686F486260A260121A91106D4A4A43F0
:1032C800531C032293FBF2F202EB42029A1A7C236C
:1032D80003FB02032360684B01221A7014E2674B58
:1032E8001D68D4F8B4319D420FD0654BC4F8B45171
:1032F8001B78093B012B08D8452017F0CFFC00208C
:1033080017F0CCFC284617F091FD5E4BD4F8B88135
:103318001D68454513D0524BC3F8B851584B1B781C
:10332800093B012B0BD8452017F0B8FC1E2017F0DD
:10333800B5FC284617F07AFD404617F077FD96F859
:10334800C7153B8896F8C8050B44013BB3FBF0F260
:1033580000FB1233994240F2A2810120FFF734FBAF
:10336800FFF796F850202668656817F097FC2268E2
:10337800A36810681B68626803441068A3EB4000E8
:1033880017F063FD06F1040E281D002350F82310E2
:103398005EF82320521A02A941F823200133032B97
:1033A800F4D1084616F08CFA06F1100E05F110005B
:1033B800002350F823105EF82320521A02A941F87E
:1033C80023200133032BF4D1084617F09FFC264A2B
:1033D80006F11C0B05F11C094FF010084FF0010A0B
:1033E80013680AFA08F0184208D0DBF80000D9F888
:1033F80000300192C01A17F028FD019A08F101085F
:10340800B8F1130F0BF1040B09F10409E8D106F127
:10341800260005F12601002331F902EF30F9022FC9
:10342800CEEB02020DF1080E4EF823200133042BD7
:10343800F2D103214FF0000A4FEA8A035FFA83FAB8
:1034480002AB53F8212042B302F108000F281DD81F
:103458004AF0010A21E000BF241A00208040002021
:10346800580B0020281A00201C1A0020201A0020BF
:10347800980B0020DF7BEFBD2E1A0020003D0020B6
:103488004C3B002018200020AB3400208032FF2A5B
:1034980094BF4AF0020A4AF0030A11F1FF31CBD275
:1034A800504617F0FBFB4FF000080DF1080BC14622
:1034B8000AF00301022916D003291ED001293BD1A5
:1034C800DBF80000B9F1000F04D100015FFA80F8C1
:1034D800894631E000F00F0040EA080017F0DEFBF3
:1034E8004FF0000928E0B9F1000F0DD0DBF800001B
:1034F800C0F3031040EA080017E0B9F1000F08D143
:103508009BF8010017F0CAFB9BF8000017F0C6FBF8
:1035180012E0DBF80000C0F3033040EA080017F0BF
:10352800BDFBDBF80000C0F3071017F0B7FBDBF8B2
:10353800001009015FFA81F80BF1040B06AB5B453B
:103548004FEA9A0AB4D1B9F1010F02D1404617F0F7
:10355800A5FB6F4B1B6813F4805807D0B6F86C2096
:10356800B5F86C10521A02924FF0010898040BD566
:103578000AAA02EB8801B5F86E00B6F86E20121A96
:1035880041F8202C08F10108590514D502AA02EBCC
:10359800880C06F1720E05F1720000223EF9021F36
:1035A80030F9029FC9EB01014CF822100132032ABD
:1035B800F4D108F103081A0509D50AAA02EB880014
:1035C800296F326F521A40F8202C08F101081804AC
:1035D8000CD50AAB03EB8802B5F87A10B6F87A3046
:1035E8005B1A42F8203C08F1010802E0B8F1000F2C
:1035F80022D0B8F1010F03D1029817F026FC1BE086
:1036080008F1FF33002002AA400052F82320C0B27C
:103618000AB140F0010013F1FF33F4D217F03EFB7A
:103628004FF0000902AB53F8290008B117F00DFC60
:1036380009F10109C145F5DB03213020FFF760F9E5
:1036480003213620FFF75CF904213C20FFF758F9E5
:10365800304B44201978FFF753F92D4B1B68990517
:1036680006D5B6F96600B5F96630C01A17F0EDFB55
:103678002268294863686260121A9110274AA36079
:103688004A43531C032293FBF2F202EB42029A1ABA
:103698007C2303FB02032360214B01221A70214B78
:1036A8001B681A0630D5204DE26929681F4B9142E4
:1036B8000AD169681A6A914206D13A88102A11D14A
:1036C800B3F8BC315B060DD1482017F0E7FA28683B
:1036D80017F0BBFB686817F0B8FB2B68E3616B68F1
:1036E80023620FE0124A94F82C1012780F4B914283
:1036F80008D1104A596A1068884203D152689B6AF7
:103708009A4201D0FFF71CF90BB0BDE8F08F00BF5B
:103718001C1A0020AB340020980B0020DF7BEFBD83
:103728002E1A0020DC1F0020FC190020580B002056
:103738003E1900204019002070470C4A13880133B5
:1037480013800B4A1368013313600A4A1388013344
:103758009BB2202B03BF00231380074A138002BFAC
:10376800B2F8BC310133A2F8BC317047221A0020EC
:10377800281A0020241A0020580B00202DE9F74FA2
:10378800C2EB030817460E9B0D9A4C4C9B1A0093EC
:103798006368002914BF06260426013381468B4638
:1037A80024D12568AE4240F28580454B03EB850362
:1037B8009A690192104617F0DDFD0B3017F000FAF8
:1037C800019A824608B1012075E0032D94BF49464D
:1037D80059463C4817F050FA3B4A1368181A636870
:1037E800106001336360394B83F8BEA1DFF8D890CD
:1037F800DFF8D8A063680C9A304D934242DA0D9AEC
:103808004AB1009A0D995A43895C01228A4030498D
:1038180009680A4232D003FB08F5236807EB050B59
:1038280023B9785917F0A6FD431D00E00323184675
:10383800019317F0C5F90028C5D1D9F80000019BFC
:10384800C01A9AF8BE31C9F800001BB12C2017F035
:1038580025FA02E001238AF8BE31236843B9785972
:1038680017F0DEF99BF904104B1C07D0194803E048
:103878009B4419489BF8041017F0FEF9636801335C
:103888006360B7E710D1012017F09AF960B90E4AC2
:1038980013680A20013B136017F000FA2B68013304
:1038A8002B604FF0FF336B602068864294BF002086
:1038B800012000E0002003B0BDE8F08F141A0020BA
:1038C80088EC0108841602083C5C0020580B002094
:1038D8001C1A0020931602085E320208124A38B5F4
:1038E80013780B2B144617D801229A4040F603058B
:1038F8001540BDB912F4C06F0ED0093B012B0BD88F
:10390800452017F0CBF9FF2017F0C8F9074817F042
:1039180087F9284617F0C2F9054B1A68054B5A6013
:103928000B23237038BD00BF4C3B002098160208BB
:10393800302A0020141A00202DE9F04F914D2E78DE
:10394800012E87B040F01A818F4C94F8C72522B118
:1039580094F8C8350BB19A4203D3012384F8C735CC
:103968000FE01846114630B191FBF0F700FB17172E
:1039780001463846F7E792FBF1F284F8C72593FB36
:10398800F1F384F8C83594F8C9352BB1022B1EBF62
:103998007D4B002283F8C92594F8C97517B1022F09
:1039A80032D03DE0802013F0F5FB8046002837D068
:1039B800802113F0C5FB754B98F806201870744BDE
:1039C80098F9000053F82230B3F5613F0CBF02228A
:1039D800002201920222009280213A4613F09EFAB8
:1039E8006C4B18606C4B1B684FF4FA7203EB430383
:1039F800B3FBF2F31BB1402BA8BF402300E0012327
:103A0800664A137078B90BE0654B5A78012A07D9D2
:103A180041F2B5129B5C1BB9604B40221A7002E060
:103A280000232B70AAE05F4D1422002105F11C0031
:103A38001AF0AEFF2B4605F1400243F8BC2B6B6031
:103A480005F59C73AB60584B94F8C7E51A88574B3B
:103A580094F822821A8094F8C825554B9645554A01
:103A68004FF0000018601268534B0592534A1968CA
:103A7800534B12781F680392637994F8502228BF39
:103A88004FF0000EA3F1190438BF4FF0010E824227
:103A980001F4006CC1F3400AC1F3C03118BF012121
:103AA80062426241012B14BF13460123C7F3800908
:103AB8000493C7F3C0070446721ED2B2531E132BD9
:103AC8002FD8DFE803F00C0C0C0C0C0C0C0C0A556E
:103AD80057191B33291212122B33049B4BE0039BFB
:103AE8009342B4BF002301231AE0059B13445B797A
:103AF800003318BF012313E053463CE0BCF1000F2C
:103B080006D008F1FF3BDBF1000343EB0B0300E0B9
:103B1800634603F001032EE00B462CE073462AE0CF
:103B280023B1012303FA02F214431846142E02D8D3
:103B38000136F6B2C0E708B11D4B1C6019200CF025
:103B4800EFFE204B204A1870002313601F4AA5F887
:103B5800BC3113801E4A1268C5F8B4211D4A126888
:103B6800C5F8B8211C4A1370064B02221A7005E0EA
:103B78003B4600E04B46002BD3D1D9E707B0BDE860
:103B8800F08F00BF4C3B0020804000202F1A0020FF
:103B9800ACFD0108405C0020AC340020101A002065
:103BA8003C490020580B0020D41D0020201A00207A
:103BB8001C1A0020FC280020DC1F0020AB34002049
:103BC800502000202C1A0020281A0020241A002037
:103BD800003D0020182000202E1A002010B5074BA9
:103BE800D3F8C0210021187B541C10B122460121B2
:103BF800F9E711B1014BC3F8C02110BD580B0020E3
:103C080038B5204B1B78002B3BD01F4B1B78002B63
:103C180037D01E4C237B03F0FF0593BB13F08EF8BF
:103C2800D4F8C431C31A002B2BDBD4F8C831184A96
:103C3800591C13444FF47A7293F83030C4F8C81101
:103C4800534303F58C5314330E29184488BFC4F822
:103C5800C851C4F8C401FFF7C1FF0E4A00231380FE
:103C6800012222730C4A4FF4347151600B494B62A4
:103C78000B889BB243F001030B80136843F00103E8
:103C8800136038BD510B0020520B0020580B002048
:103C980088EC0108684600201C000240002C014006
:103CA8002DE9F04F894A85B01378029203F0FF0599
:103CB800002B40F00881864E019696F8D02196F8A0
:103CC800D19196F8D231A6F8CC51A6F8CE51294612
:103CD8002F46AE46AC46AB463C240FFA85F8B8F101
:103CE800200F00F0BF807B4800EB880C9CF8030095
:103CF8009CF802C0CCF1FF0C1FFA8CFCBCF1000F41
:103D080000F08280734ECCF1FF0C00FB0CFC36F8FF
:103D180028804FEA2C2C3C26B8FBF6FABAF1050F9E
:103D280075D8DFE80AF003102233485A5FFA8CF39B
:103D3800CCEB000C08FB0CF8B8FBF4F898440246EE
:103D48005FFA88F05CE0B8FBF4F204FB128292B2EE
:103D58005FFA8CF3C2F13C02CCEB000C0CFB02F2D4
:103D6800B2FBF4F21A44D2B24AE0B8FBF4F304FB13
:103D780013885FFA8CF21FFA88F8CCEB000C08FB6A
:103D88000CF3B3FBF4F31344DBB239E0B8FBF4F300
:103D980004FB13881FFA88F85FFA8CF2C8F13C0814
:103DA800CCEB000C0CFB08FCBCFBF4FC9444034675
:103DB8005FFA8CF024E0B8FBF4F204FB12885FFA97
:103DC8008CF11FFA88F8CCEB000C08FB0CF2B2FB64
:103DD800F4F20A44D2B2034611E0B8FBF4F304FB50
:103DE80013839BB25FFA8CF1C3F13C03CCEB000C5C
:103DF8000CFB03F3B3FBF4F30B44DBB202460846B7
:103E080001210F468E4603E003460246F8E748467E
:103E18004FEA02284FF0170C48EA00480BEB0C0653
:103E280048EA03080396039ECCEB0609012606FA26
:103E38000CFA1AEA080F1FFA89F9274E14BF4FF037
:103E4800110A4FF0090A1CF1FF3C06F809A0EAD252
:103E58000BF1180C01351FFA8CFBADB24FF0010CB9
:103E680081463AE7BCF1000F02D00198A0F8CCB126
:103E7800BEF1000F02D0019880F8D02117B1019A45
:103E880082F8D19111B1019A82F8D231BCF1000FB8
:103E980003D0019A2023A2F8CE31029A012313708D
:103EA8000E4B1B787BB10E4A0E4940F22A33536001
:103EB80000234B620B889BB243F001030B8013680D
:103EC80043F00103136005B0BDE8F08F455C0020A6
:103ED800580B0020465C002008080020380B002002
:103EE8001C000240002C01400148FEF7B9BC00BF8D
:103EF800F02A00200148FEF7B3BC00BF9C2A00202E
:103F08000148FEF7ADBC00BF482A0020F7B50646B9
:103F18000D46002401272A8807FA04F31A421AD00A
:103F2800AA78009302F003038DF80430EB78022B93
:103F380003D0032B0CBF032301238DF805306946FA
:103F4800C2F301133046C2F381028DF806308DF8B2
:103F5800072009F0BBF90134102CDCD103B0F0BD07
:103F6800F7B50E4F0E4D182404FB00706E69C46936
:103F780034436C610362437E8DF804300023416151
:103F880092098DF8063001A801238DF805208DF8D7
:103F9800073015F0D9FA03B0F0BD00BF00000020CB
:103FA800001002400348D0F81C3113B100F58A70A4
:103FB80018477047000000200348D0F804310BB1BF
:103FC800FC301847704700BF000000200348D0F8B5
:103FD800EC300BB1E4301847704700BF00000020F8
:103FE8000348D0F8D4300BB1CC301847704700BF25
:103FF800000000200348D0F8BC300BB1B43018479B
:10400800704700BF000000200348D0F8A4300BB16F
:104018009C301847704700BF000000200348D0F8C4
:104028008C300BB184301847704700BF0000002067
:104038000248436F0BB16C301847704700000020EE
:104048000248C36D0BB15430184770470000002078
:104058000248436C0BB13C30184770470000002001
:104068000248C36A0BB1243018477047000000208B
:10407800024843690BB10C30184770470000002014
:10408800034A138801339BB213800020704700BF96
:10409800602000201549D1F8883043F47003C1F836
:1040A8008830134B1A6842F001021A605868114AA6
:1040B80002405A601A6822F0847222F480321A6030
:1040C8001A6822F480221A605A6822F4FE025A60A2
:1040D800DA6A22F00F02DA62186B074A02401A63A2
:1040E80000229A604FF000638B60704700ED00E09B
:1040F800001002400CC07FF8CCFC00FF2DE9F04F07
:10410800914B95B01D780093002D00F0A7808F4B40
:104118001868002802F0958008F052FCDFF85C92DD
:10412800DFF85C82D9F8000011F0E8FE002802F000
:104138008880D9F80000864C11F0DDFE092801D0EE
:104148003F2855D14FF0000A2668574655460AEBD6
:10415800080B36B132465AF808107E481AF05CFC53
:1041680020B90DB15F4601E05D465F460AF1100ACD
:10417800BAF5107FEBD1F5B1D5F800A0D7F800B0AB
:10418800DFF8D0C123681AF803001BF80310814236
:1041980011D15A1CDFF8BCE149B92D2B07D86C485E
:1041A800026020200EF803000EF8021003E00CF85D
:1041B80003002260E6E723680BB1BD420FD06648D2
:1041C8000BF030FFBD4207D855F8100B0BF02AFF53
:1041D80009200BF01EFDF5E70FF0A2FE00265D4D4D
:1041E80023689E429ED2A85D0BF013FD0136F7E7C7
:1041F80023686BB9042804D156480DF0CBFF02F0B0
:1042080020B80C2842F0198054480BF00BFF22E02C
:104218000C28F9D00A2841F0C4874E4E50480BF0BC
:1042280001FF232130461AF0E8FB354608B1801B10
:10423800206023680022002B41F0B787002A41F054
:10424800CF873022002143481AF0A2FB009B1B783D
:10425800002B01F0F6870FF063FE63E7414B03F193
:104268003007414BEA18EB58002B01F00D813F490C
:104278003F4C0B600493002322608DF815303D4AB3
:104288003D48039214238DF8143003AB036026468F
:1042980089469246D9F80000DFF8D08011F02EFE4A
:1042A800002801F0DD80D8F8000011F024FE336802
:1042B80093F84810834619B9242863D101221DE0D8
:1042C800012903D14D2808BF022204E0022907D1A1
:1042D8003C2808BF032218BF002283F8482085E045
:1042E80003290ED140284FF0000102D983F8481065
:1042F800D0E758711971D9719871042283F8482050
:10430800C8E7042907D1997983F8490080EA0102AE
:104318009A710522F2E7052968D1587919798842F6
:10432800987908D98BEA00009871481C18710B44D9
:1043380083F808B0AEE7584503D1062283F8482031
:104348005AE00022DAE700BFF828002048200020C1
:10435800F4280020C4280020C2160208C716020844
:1043680033350208C8EC0108FC2600204420002050
:104378003C200020115F010840200020642000201C
:10438800100E0208D8490B7803F0040303F0FF0E5F
:10439800002B7FF47FAF23281DD1009AD8F80000A6
:1043A800019101231370D14B1860D14B1860D14B88
:1043B800586010201872D048C3F800A0036083F832
:1043C80009E0CE480BF02EFE0FF0AAFD01990B78FC
:1043D80043F002030B70CA4B1B681B785B4505D181
:1043E800C84BC94A1A60C94BC94ADA60336893F89E
:1043F8004820062A7FF44EAF93F84980B8F15A0F47
:1044080000F0A68700F2DE80B8F1340F00F058847F
:1044180067D8B8F1240F00F0C5852DD8B8F1040F7E
:1044280000F05C8215D8B8F1020F00F03C8200F26F
:104438004982B8F1010F40F0F38703200BF0D4FB59
:1044480000200BF08CFB40460BF089FB152000F098
:10445800E4BFB8F10A0F00F07E82B8F1220F00F035
:104468000E84B8F1050F40F0DB871A200BF0BCFB77
:104478000026DFF8B08241E2B8F12C0F00F0C485C5
:104488001BD8B8F1280F00F0A685B8F12A0F00F064
:10449800B585B8F1260F40F0C3879E4E06200BF075
:1044A800A3FBB6F8C8010BF0A2FBB6F8CC010BF0E1
:1044B8009EFBB6F8D00100F09FBFB8F1300F00F0B6
:1044C8006486B8F1320F00F00886B8F12E0F40F07C
:1044D800A787904E40200BF087FB06F1400800F0BC
:1044E80044BEB8F1450F00F0FD8637D8B8F13B0F50
:1044F80000F0BE831AD8B8F1380F00F05985B8F12A
:104508003A0F00F03483B8F1360F40F08987794BC1
:10451800804E93F87000DFF81092C0EBC000C0B274
:104528000BF062FB06F1200800F01BBEB8F1400F4B
:1045380000F0DA85B8F1420F00F0E685B8F13D0FDA
:1045480040F06E87734E02200BF04EFB96F89B02EC
:104558000BF005FB96F89A0200F05FBFB8F14D0F1B
:1045680000F0988516D8B8F1490F00F02A83B8F101
:104578004B0F00F07485B8F1460F40F051870D20BD
:104588000BF032FB00200BF0EAFA00200BF038FBAE
:1045980000F0B5BEB8F1500F00F0388605D8B8F174
:1045A8004F0F00F05B8600F03BBFB8F1520F00F0F0
:1045B8008486B8F1540F40F0338701200BF014FBC8
:1045C80000F08EBEB8F1720F00F0E98300F2C980E6
:1045D800B8F1680F00F068826ED8B8F1640F00F087
:1045E800AA8139D8B8F15E0F00F0D186B8F1600F12
:1045F80000F00587B8F15C0F40F01287454EDFF8F0
:104608002C8111200BF0F0FA96F8DC010BF0A7FAD8
:10461800D8F80030188C0BF0EAFAD8F80030588C2B
:104628000BF0E5FAB6F8DE010BF0E1FAB6F8E001B6
:104638000BF0DDFAD8F80030988C0BF0D8FAD8F8DF
:104648000030D88C0BF0D3FAB6F8E2010BF0CFFAB1
:10465800B6F8E40100F0D0BEB8F1660F00F08D8125
:1046680000F2B8810B200BF0BFFA2B4B18880BF027
:10467800BEFA2A4B188880B20BF0B9FA284B1B688F
:10468800C3F3C000C3F38002800040EA4200C3F3D2
:1046980040021043C3F3401240EAC20003F0100383
:1046A80018430BF0A4FA0BF087F90BF0A9FA194B91
:1046B80093F81C0500F0B1BEB8F16C0F00F00E8243
:1046C8003AD8B8F16A0F00F0AC8300F2C983DFF87A
:1046D8006080DFF8609098F80000400000F0FE006D
:1046E8000BF082FA0026EEE11C2000206420002056
:1046F800341A0020540D002048200020F216020829
:10470800C4260020FC9F0020EFBEADDE00ED00E0D7
:104718000400FA05804000204C2000206020002082
:104728005020002034170208CC260020FC28002046
:10473800F4270020A4270020B8F16E0F00F01B8298
:10474800C0F00A82B8F16F0F00F04282B8F1700F22
:1047580040F066861E200BF047FA0026DFF8CC836F
:1047680068E2B8F17D0F00F0D18529D8B8F1760F4D
:1047780000F0B2830AD8B8F1740F00F08F8040F2CD
:1047880045832F200BF030FADC4E69E2B8F1780F40
:1047980000F02F81C0F0E382B8F17C0F40F0408632
:1047A800D74E06200BF020FAB6F8D6000BF01FFA09
:1047B800B6F8D8000BF01BFAB6F8DA0000F01CBE09
:1047C800B8F1A00F00F0E0833FD8B8F17F0F00F0F8
:1047D800E984C0F0AE85B8F1960F40F021860F202D
:1047E8000BF002FAC74B18880BF001FAC64B188871
:1047F80080B20BF0FCF9C54B1B68C3F3C000C3F3D0
:104808008002800040EA4200C3F340021043C3F331
:10481800401240EAC20003F0100318430BF0E7F916
:104828000BF0CAF80BF0ECF9B54B93F81C050BF03C
:1048380096F9B74B18886428A8BF64200BF0D7F9FD
:1048480003200BF08CF9B34B17E2B8F1F00F00F02E
:10485800908314D8B8F1A40F40F0E285DFF8D08235
:1048680098F82F0080000130C0B20BF0BDF998F81D
:104878002F000BF074F9002608F1300A55E3B8F15F
:10488800F10F00F0EA80B8F1FE0F40F0C98508206A
:104898000BF0AAF90026DFF89C8262E34FF00009CA
:1048A8004FF0010B38E204200BF09EF9DFF8888204
:1048B800002618F8060001360BF051F9042EF8D13D
:1048C80000F0C8BD03200BF08FF903200BF047F967
:1048D80000200BF044F9012000F09FBD06200BF0EA
:1048E80083F9DFF85882002618F8060001360BF025
:1048F80036F9042EF8D1002000F07EBD18F8060025
:1049080001360BF02CF90B2EF8D1DFF83482002693
:1049180018F8060001360BF022F9082EF8D1DFF856
:104928002482002618F8060001360BF018F9072E25
:10493800F8D100F08FBD07200BF056F9E7200BF0F7
:104948000EF96F4B58790BF00AF900200BF007F9B4
:10495800042000F0D8BC7048DFF8EC8116F00AFD9E
:10496800C6B230460BF040F94644B04500F07285B7
:1049780018F8010F0BF0F3F8F7E712200BF034F9F1
:10498800664BDFF8C8911B89B3F5007F94BF4FF0E1
:1049980001084FF00408002659F8260090FBF8F0AB
:1049A800013680B20BF023F9032EF5D15C4E308826
:1049B8000BF01DF9B0880BF01AF93089594E0BF03D
:1049C80016F930880BF013F9B0880BF010F930891C
:1049D80000F012BD10200BF007F9DFF874810026F3
:1049E80018F8060001360BF0BAF8102EF8D100F0CE
:1049F80031BD7020424E0BF0F7F84FF0000AB04678
:104A08004FF00E09B6F854010BF0F1F8B6F856015C
:104A18000BF0EDF8B6F858010BF0E9F896F85A01E2
:104A28000BF09DF896F85B010BF099F896F85C018D
:104A38000BF095F896F85D010BF091F809FB0A83E5
:104A48000AF1010AD3F85E010BF0DAF8BAF1080F9F
:104A580006F10E06D6D100F0FDBC7020284E0BF0F2
:104A6800C3F806F1700896F8E4000BF078F896F8A9
:104A7800E5000BF074F896F8E6000BF070F896F87D
:104A8800E7000BF06CF896F8E8000BF068F896F879
:104A9800E9000BF064F8073696F8E3000BF05FF8CE
:104AA800B045E0D100F0D6BC10200BF09DF8DFF83F
:104AB800A480002618F8060001360BF050F8102ED6
:104AC800F8D100F0C7BC98F800309E4280F0C2844C
:104AD80039F816000BF08BF80136F4E7124E062071
:104AE8000BF082F830880BF082F870880BF07FF8B2
:104AF800B6F904300A2093FBF0F05CE0C7EC01083B
:104B0800804000204C200020602000205020002001
:104B1800601C00204E200020564600205420002013
:104B28009C340020603E002094340020FC280020A3
:104B3800540D0020D81D00202A1702082F1702083C
:104B4800401702084917020855460020141900208A
:104B5800700D00207032002006200BF045F8C94B7C
:104B680018680BF04DF8C84B188800F045BC0420B5
:104B78000BF03AF8C6E307200BF036F8C34B188859
:104B8800FF28A8BFFF20C0B20AF0E9FFC04B186891
:104B980080F3100080B20BF02AF8BE4B18880BF097
:104BA80026F8BD4B93F82322BC4B186832B10A2370
:104BB800584380F3100080B200F01EBC00F30F00D1
:104BC800F9E702200BF010F8B54B988A00F014BCF6
:104BD800B44E0C200BF008F8336818780AF0BFFFC1
:104BE800336898780AF0BBFF4FF00009B046D8F850
:104BF8000030AC4E4B4409F1010958790AF0AFFF77
:104C0800B9F1030FF3D13368187A0AF0A8FF3368B3
:104C1800D8780AF0A4FF336818790AF0A0FF33683F
:104C280058890AF0E4FF3368587A0AF098FF336825
:104C38005878F2E3D8F80030334458780AF08FFFF8
:104C4800D8F800303344D87A0AF089FFD8F8003011
:104C580033440136587D0AF082FF0A2EEAD1F9E37F
:104C680016F8010F002800F0F5830AF078FFF7E73F
:104C780001200AF0B9FF8C4B1B681878CDE350204F
:104C8800854E0AF0B1FF06F150084FF00C09874A2B
:104C980096F81D3509FB0323043693F838000AF00B
:104CA8005EFF96F81A050AF05AFF96F81B050AF0F7
:104CB80056FF96F81C050AF052FFB045E7D1C9E344
:104CC8005A20754E0AF090FF06F15A0896F87205B8
:104CD8000AF045FF96F86D050AF041FF96F86E0553
:104CE8000AF03DFF96F86F050AF039FF96F870054F
:104CF8000AF035FF063696F86B050AF030FF464590
:104D0800E4D1A7E3BBF1000F00F0A4835FFA89F0B8
:104D18000AF06AFF4FF0000B0026654B1B789E4295
:104D2800F0DA644BF05C00214FF00C0E0EFB01F33F
:104D380013F807C0844503D001311F29F6D10CE0D0
:104D48005A4A1344D3F834A0504616F013FB0146D0
:104D5800BBF1000F00F09E8389440136DDE7DFF8E0
:104D68005081DFF850A198F80000DFF840910AF070
:104D78003BFF002698F800309E4280F06B8316F8BF
:104D88000A1000220C2000FB02F313F807E08E45FE
:104D980000F08D8301321F2AF5D10136EAE73E4E35
:104DA80016200AF021FFB6F854020AF020FFB6F8E0
:104DB800CC000AF01CFFB6F8CE000AF018FFB6F8CF
:104DC800D0000AF014FFB6F8AC020AF010FF96F80B
:104DD800A5020AF0C4FE00200AF0C1FE96F8A60259
:104DE8000AF0BDFE96F823020AF0B9FE96F85002C2
:104DF8000AF0B5FE00200AF0B2FEB6F9F0310A203A
:104E080093FBF0F080B20AF0F2FED5E008200AF039
:104E1800EBFE0126F0B201360AF0A1FE092EF9D107
:104E280018E310200AF0E0FE234B244E187800F017
:104E380002000AF094FE224B18780AF090FE3068BF
:104E48000AF0DEFE70680AF0DBFE1E4B18880AF0D6
:104E5800CEFE1D4B18880AF0CAFE1C4B988DCBE27B
:104E680005200AF0C1FE1A4B18880AF0C0FE194B3B
:104E780018880AF0BCFE154B93F82E0000F00100CC
:104E8800CBE200BFF819002020190020001E0020E6
:104E9800B41D0020F05C0020804000203419002060
:104EA800681D0020541C0020FC280020C8EC0108C4
:104EB8001D2000201E200020381900204019002045
:104EC8003E1900203C1900203A190020540D0020FA
:104ED800B0190020B21900200AF022FE81461220E3
:104EE8000AF082FEB9F1000F01D1D14B03E0B9F10C
:104EF800100F04D1CF4BD3F800805E6801E0002684
:104F0800B04648460AF02BFE40460AF079FE304685
:104F18000AF076FEC84B18680AF072FE00200AF004
:104F280066FE00200AF063FEDAE198F82F309E4210
:104F380080F09082DFF81C931AF806000AF00FFE42
:104F480019F806000AF00BFE09F1100309F120090F
:104F5800985D0AF004FE19F806000AF000FE013612
:104F6800E3E738F8160001360AF041FE042EF8D1BE
:104F780070E2B24E04200AF037FEB6F8F4010AF0E7
:104F880036FEB6F8F20137E20C200AF02DFEAC4BE3
:104F980018680AF035FEAB4B18680AF031FEAA4BC8
:104FA8001868B0E104200AF01FFEA44B9868AAE133
:104FB80004200AF019FEA14E96F816020AF0CFFD59
:104FC80096F81A020AF0CBFD96F819020AF0C7FD06
:104FD80096F81B0221E2994E07200AF005FEB6F862
:104FE8001E020AF004FEB6F820020AF000FE96F847
:104FF80022020AF0B4FDB6F82402FDE101200AF00D
:10500800F3FD8E4B587908E28C4E10200AF0ECFD27
:1050180096F84C020AF0A3FDB6F858020AF0E7FD2C
:10502800B6F854020AF0E3FDB6F856020AF0DFFDBE
:1050380096F84E020AF093FDB6F860020AF0D7FD22
:10504800B6F862020AF0D3FD96F85A020AF087FD14
:1050580096F85B020AF083FDB6F85E02CCE1774E63
:1050680008200AF0C1FD96F8AA020AF078FD96F821
:10507800AB020AF074FDB6F8AC020AF0B8FD96F877
:10508800AE020AF06CFDB6F8B0020AF0B0FD96F870
:10509800B202C2E16D4EDFF8C081307800EB40000B
:1050A800C0B20AF0A1FD4FF000093378994508F124
:1050B800020880F0CF8118F8020C0AF050FD18F8A9
:1050C800010C00EB800000EB800000F2EE2080B2C3
:1050D8000AF08DFD09F10109E7E701200AF084FDD6
:1050E800564B93F8500298E108200AF07DFDDFF84E
:1050F8004C81002606EB0803013693F844020AF0B7
:105108002EFD082EF6D1A5E14C4E10200AF06CFDBC
:1051180070790AF024FDB0680AF072FD96F84C0226
:105128000AF01DFDB6F8C8010AF061FDB6F8CC0119
:105138000AF05DFDB6F8D0010AF059FDB6F81E0276
:105148000AF055FDB6F8200256E113F9092082420B
:1051580000F0B3810C33302BF7D10836B04500F09E
:10516800798196F9B6020023EFE7B6F86C030AF0E6
:105178003EFD96F86E030AF0F2FC043696F86B03CF
:105188000AF0EDFC4645F0D164E18020304E0AF08B
:105198002BFD06F1800856F8040F0AF031FD46454C
:1051A800F9D157E18D200AF01FFD00264FF0060ABD
:1051B8000AFB06F94FF0000B5FFA86F840460AF042
:1051C800CEFC5FFA8BF00AF0CAFC1C4B0BEB090112
:1051D80019440BF1010B91F8AC030AF0C0FCBBF1C8
:1051E800060FEBD10136062EE2D1002606200AF082
:1051F800B6FCF0B20AF0B3FC104B3344013693F816
:10520800D0030AF0ACFC0B2EF0D123E10B4E0420A6
:105218000AF0EAFC01200AF0A2FC96F8C9050AF097
:105228009EFC96F8C7050AF09AFC96F8C805F4E0C3
:10523800FC190020A01800203C3E002080400020DF
:10524800ACF7FF1FB0F7FF1FB4F7FF1FF4270020CC
:1052580068430020940D0020E44200200B200AF04F
:10526800C3FC01200AF07BFC10F022FAC34EA0B167
:1052780096F8243073B1C24A5278032A03D8DFE87B
:1052880002F00909040B002007E0042B34BF0220B8
:10529800032002E0012000E00420DFF808830AF080
:1052A8005EFC98F800000AF05AFC58F83C0C800A9A
:1052B8000AF0A6FCF06B400825E007200AF094FCF1
:1052C80001200AF04CFCDFF8BC82002606EB08033C
:1052D800013693F8DC030AF042FC062EF6D1B9E059
:1052E80000209AE013200AF07FFCDFF8BC82002639
:1052F80018F8060001360AF032FC0B2EF8D100200F
:105308000AF07EFC00200AF07BFCA3E09D4E0520FD
:105318000AF06AFC96F826020AF021FC96F82702A1
:105328000AF01DFC96F828020AF019FCB6F8DC0011
:1053380062E0944E03200AF057FC96F8C5010AF083
:105348000EFC96F8C6010AF00AFC96F8C70164E05C
:105358008C4E06200AF048FCB6F8D83123B1082054
:105368000AF0FDFB012005E096F8DA010AF0F7FBE8
:1053780096F8EA010AF0F3FB96F8E3000AF0EFFB6F
:1053880096F8E2000AF0EBFBB6F8DE0034E07E4E59
:1053980011200AF029FC3368588D0AF028FC33687C
:1053A800988D0AF024FC3368D88D0AF020FC336805
:1053B80093F828000AF0D3FB336893F833000AF017
:1053C800CEFB336893F836000AF0C9FB336893F8CC
:1053D80037000AF0C4FB00200AF0C1FB00200AF0E5
:1053E800BEFB336893F835000AF0B9FB3368588F71
:1053F8000AF0FDFB3368188F0AF0F9FB2AE0614ECA
:1054080003200AF0F1FB96F8D5010AF0A8FB96F8FC
:10541800EE010AF0A4FB96F8ED010AF0A0FB19E0F2
:10542800B8F15D0F61D040F29880B8F1D20F40F02A
:1054380029830AF075FB020600F11C83534B1B7885
:105448005B0704D4032828BF002007F01DFB0020B9
:105458000AF0CAFB0AF094FB2368002283F848206C
:105468004B4B4C4C186807F0ABFA94F871305BB1B1
:10547800494B585911F032FD11F087FC002384F88C
:105488007130464B464ADA604C35982D00F0D98683
:10549800FEF7E7BED046CAEB08008842BFF65DAC0F
:1054A80018F8010B01910AF05AFB0199F3E74B44F4
:1054B80093F838000AF053FB6FE4C0B20AF04FFBD0
:1054C800B6F8B8020AF093FB96F8BA020AF047FB5E
:1054D80096F8BB020AF043FB96F8BD020AF03FFBC0
:1054E80096F8BC020AF03BFB37E60AF019FBDFF836
:1054F8009880244ED8F8009086F8DC010AF01CFB4E
:10550800A9F82000D8F800900AF016FB2368A9F83B
:1055180022005B79052B13D90AF00EFBA6F8DE01F1
:105528000AF00AFBD8F80090A6F8E0010AF004FB9C
:10553800A9F82400D8F800800AF0FEFAA8F8260096
:1055480023685B790D2B82D90AF0F6FAA6F8E201F6
:105558000AF0F2FAA6F8E40179E7B8F1370F4BD16F
:105568005B794FF00708B3FBF8F8C8EBC8029B1A41
:1055780013F0FF0F1AD00BF083FC68E70028002017
:105588003C49002080400020FC2800201C200020EE
:1055980040200020540D0020FC26002000ED00E0F3
:1055A8000400FA05F05A0020341702085FFA88F858
:1055B80008F1FF385FFA88F8B8F1FF0F3FF447AFFA
:1055C8000AF0AEFA4FFA80F9484611F0A5FD0646F2
:1055D8000028D0D080F800900AF0AEFA70800AF067
:1055E8009FFA30710AF09CFA70710AF099FAF0711A
:1055F8000AF096FAB071DBE700F24081B8F12B0FA0
:105608002DD10AF08DFAC74B27E040F24081B8F15E
:105618004E0F40F0C2810AF083FA11280646AAD834
:10562800DFF800830AF07CFA06F5987608EB460363
:1056380018710AF081FA40F2ED239842424640F38D
:10564800A98140F6CA039842A8BF184602EB460350
:10565800A0F2EE20192290FBF2F05871F7E675D807
:10566800B8F1250F08D1AF4E0023B3600AF06EFAE7
:10567800B3681843B060EAE642D8B8F10B0F19D105
:1056880011220021A848DFF89C9219F081F94FF007
:10569800000833685B79102B28BF10239845BFF4A6
:1056A800D6AE0AF03DFA08EB090308F1010883F8C1
:1056B800D605EEE7B8F1230F1FD10AF031FA132807
:1056C80006463FF658AF0AF02BFA00220C2101FBE0
:1056D80002F307EB030E9EF808E0864500F03C85D0
:1056E80001321F2AF3D146E7B8F1FA0F40F00685D8
:1056F8008E4B1B785A0740F16C830BF0C1FBA9E66F
:10570800B8F1270F0DD10AF017FA864EC6F8C8016E
:105718000AF012FAC6F8CC010AF00EFAC6F8D0015F
:1057280095E6B8F1290FE8D10AF006FA7D4EA6F8F9
:105738001E020AF001FAA6F820020AF0F1F986F82A
:1057480022020AF0F9F9A6F8240280E6B8F1310F2E
:1057580014D10AF0E5F91F2806463FF60CAF236876
:105768005B79052B7FF407AF0AF0F0F96D4B03EB7B
:105778008603C3F8EC020DF063FC68E64BD8B8F179
:105788002D0F32D10AF0CCF9664E86F84C020AF099
:10579800D3F9A6F858020AF0CFF9A6F854020AF08D
:1057A800CBF9A6F856020AF0BBF9236886F84E0230
:1057B8005B79082B07D90AF0BFF9A6F860020AF04E
:1057C800BBF9A6F8620223685B790C2B7FF63FAE23
:1057D8000AF0A6F986F85A020AF0A2F986F85B02DE
:1057E8000AF0AAF9A6F85E0231E6B8F12F0F84D1C3
:1057F8004C4E06F140080AF09FF9A6F86C030AF02F
:105808008FF986F86E030AF08BF9043686F86B0375
:105818004645F0D11BE6B8F1330F05D10AF080F9FF
:10582800404B83F8500212E6B8F1350F7FF465AFAC
:105838000AF076F90E2880463FF69DAE0AF070F918
:1058480003283FF698AE374B062606FB083686F83F
:1058580072050AF065F986F86D050AF061F986F8AF
:105868006E050AF05DF986F86F050AF059F986F8B1
:1058780070050AF055F986F87105E8E5B8F1440FA6
:105888007FF4C3AE2A4B012283F87120DFE5B8F11B
:105898003E0F09D10AF044F9224E86F89B020AF01D
:1058A8003FF986F89A02D2E52BD8B8F1390F11D111
:1058B8000AF036F91B4E86F816020AF031F986F816
:1058C8001A020AF02DF986F819020AF029F986F861
:1058D8001B02BCE5B8F13C0F7FF40FAF154ED6F8AC
:1058E80000800AF01DF90128A8BF012088F80000EF
:1058F80033681B78012B104B14BF104A104A1A60EA
:10590800A5E5B8F1410F1DD1DFF8188000260AF08F
:1059180007F906EB08030136082E83F84402F6D18E
:1059280095E500BF80400020564600201C2000203E
:10593800540D0020FC280020C401002085720108B5
:1059480021620108B8F1430F7FF4D7AED04E0AF0B8
:10595800E7F80023B36070710AF0F8F8B3681843E9
:10596800B0600AF0DDF886F84C020AF0E5F8C6F8EF
:10597800C8010AF0E1F8C6F8CC010AF0DDF8C6F86B
:10598800D0010AF0D9F8A6F81E020AF0D5F8A6F850
:1059980020025CE540F2EE2058E623D8B8F14A0F21
:1059A80002D10AF0C9F852E5B8F14C0F7FF4A5AE60
:1059B8000AF0B6F8B64E86F8AA020AF0B1F886F8E8
:1059C800AB020AF0B9F8A6F8AC020AF0A9F886F812
:1059D800AE020AF0B1F8A6F8B0020AF0A1F886F80B
:1059E800B20234E5B8F1530F14D15B79062B7FF47A
:1059F800C2ADDFF89C8200260AF092F806EB080395
:105A08000136062E83F8DC03F6D1FEF7E7F813F02B
:105A1800CFFE1CE5B8F15B0F15D10AF081F89C4E5A
:105A280086F8DA010AF07CF886F8EA010AF078F8D4
:105A380086F8E3000AF074F886F8E2000AF07CF8C9
:105A4800A6F8DE0003E5B8F1510F7FF456AE914B8E
:105A58001B78012B3FF6FBAC0AF062F88C4E86F8F7
:105A6800C9050AF05DF886F8C7050AF059F886F8FE
:105A7800C805ECE400F07F00032828BF002006F0EA
:105A8800E3FFE4E400F2ED81B8F1CC0F52D15B7989
:105A9800092B7FF670AD804ED6F800800AF040F8EA
:105AA80088F80000D6F800800AF03AF888F8020072
:105AB8000AF036F833686428A8BF642058710AF0E1
:105AC8002FF833686428A8BF642098710AF028F872
