:020000040800F2
:10000000002000101D210308114B0208793C010853
:100010000D4B0208094B0208054B020800000000C6
:10002000000000000000000000000000014B02087A
:10003000FD4A020800000000F94A0208B9CD010893
:1000400085210308852103088521030885210308EC
:100050008521030885210308B9190108E51A01085B
:10006000A91A01086D1A0108311A01088144000813
:1000700071440008614400085144000841440008EC
:100080002D44000819440008852103088521030830
:100090009D4E02088521030885210308F5190108F2
:1000A000A9480108F9480108852103080949010800
:1000B000E9480108D948010885210308852103087A
:1000C000852103088521030885210308852103086C
:1000D00085210308DD420008D1420008C54200081E
:1000E0007D19010885210308E94A020885210308D2
:1000F000B948010885210308C9480108852103087A
:10010000000000000000000000000000852103083E
:10011000852103088521030885210308852103081B
:1001200005440008F1430008DD430008C943000806
:10013000B54300088521030800000000000000000E
:10014000852103088521030885210308000000009C
:10015000000000000000000000000000000000009F
:10016000000000000000000085210308852103082D
:1001700085210308000000000000000000000000CE
:080180000000000085210308C6
:10019000214B1B7813B1214B1B7803B9704770B406
:1001A0001F490B7803F0FF05002B33D11D4A13685C
:1001B000C31A002B2EDB53681B4CE65C00F58C50F9
:1001C00001334FF47A7453600E2B04FB06F400F1F4
:1001D00014000B7888BF55602044106033B1134879
:1001E00003680A780133002AFBD10360104B114ADF
:1001F00018681268104D01264FF4347300240E70F5
:100200005360446203882C809BB23343038013689D
:100210003343136070BC70475E200020182B002011
:100220005C6D00209C1D0020E8670308606D0020C5
:10023000B42D0020B02D00205E6D002010B40268A7
:10024000047B11680223A340194209D00649406883
:1002500000240C7001684FF6FE7421400160536069
:100260005DF8044B704700BF5C6D0020FF207047B5
:10027000012380F845307047014B1868704700BF74
:10028000C841002001207047704700BF704700BF81
:100290002DE9F04FDFF81CB2DFF81CE2BBF80020BC
:1002A000DEF80860BBF90430BBF90250BBF90A80E4
:1002B000C2EB261404FB04F424135200C2EBE60242
:1002C00003FB04F305FB02F29B1303EBE223B3F5FC
:1002D000FA364FEAE37589B045F1FF373246A6FB9F
:1002E0000645CDE9024502FB07F205EB4202CDE9E6
:1002F0000467029EBBF90840039208FB02FC4FEA28
:10030000E87906FB09CC3A46A8FB0689049ECBF89F
:100310001830E51704FB02F206FB0522A4FB066772
:10032000E14417444FEA182242EA096200924FEA78
:10033000292201923D03DDE90078340345EA165590
:100340003F19BBF80660069048EB05083C1C48F5D1
:10035000004503EB8302A4FB068906FB0599803266
:1003600013124FEA69064FEAE977079356EA070343
:100370008A4600F09280DDE90489BBF90E20DEF8A0
:100380000C40BBF910004946C4F5801ED317DDE9C7
:10039000024502FB01F108FB0311A2FB08230B44F9
:1003A0004FEA43492B46C11700FB03F304FB01331B
:1003B000A0FB0401BBF90C401944E3000193734610
:1003C000DC170023009349EAD2394FEA4248DDE9BD
:1003D000002310EB080041EB0901E50712184FEA72
:1003E000CE744B4145EA5E05A41A65EB030522195C
:1003F00045EB050312196B4199019001801841EA00
:10040000926159418B00820043EA9073101943EBCB
:1004100005018B00820043EA9073104600191946CB
:1004200032463B46694131F0A5FCBBF916204C131E
:10043000450B45EAC14502FB04F6D31705FB0366ED
:10044000A2FB05233344BBF9146002FB04F405FB53
:10045000034406FB01FEA2FB0523F717234400FB20
:1004600007EE540EA6FB0067774444EAC3144FEA34
:10047000D64800194FEA636548EA473869414FEAB0
:10048000E74918EB0008BBF9124049EB01094FEAB4
:10049000182646EA096620013618069B0BB1360A73
:1004A0001E60BAF1000F02D0079BCAF8003009B0F5
:1004B000BDE8F08FA02A00209C1D0020704700BFDF
:1004C000704700BF4FF40063038170474FF400632F
:1004D0000381704750F8043C01224274143803B180
:1004E0001847704790F82530024603F0FF0013B11B
:1004F000002382F82530704770B582B00446036B44
:1005000090F844006A4606219847C0B19DF804005F
:100510009DF800609DF801109DF802509DF80320A1
:100520009DF8053041EA062143EA002342EA05220C
:1005300009B212B21BB2A1830120E283238402B06C
:1005400070BD00BFF0B583B0044643696A4606211A
:100550003B209847A0B19DF800709DF801109DF8D0
:1005600002609DF803209DF804509DF8053041EA93
:10057000072142EA062243EA05236181A281E38141
:1005800003B0F0BD036D026B70B50446DD69C2B106
:10059000636B2BB12B0702D5236D08221A6270BD45
:1005A0002A06F7D5A26A616A8A421FD0511CA06947
:1005B000A162825C2069266D81423285EAD3A36202
:1005C000E8E7A906E4D5C26A1AB1988C80B29047D0
:1005D000DEE7C1699B8C4069DBB24E1CE661435487
:1005E000E169E368994228BFE261D1E7226D1368AF
:1005F00023F080031360CDE770B40468037B2268A6
:10060000022101FA03F31A4213D042690A494568EC
:10061000582000FB021229685068528900684FF682
:10062000FE7631402960C168D24392B20A40C2606E
:10063000636070BC704700BF8C6000200A4B1B7861
:100640008BB130B4094B1C7864B1094B002503EB26
:10065000C4041A6899885562D06808330143A342DC
:10066000D160F6D130BC7047F0640020AC6400204B
:10067000B06400201B4B70B41C788CB31A4E582504
:1006800005FB00656C685CB3E4684CB32B7B43EA04
:1006900041039AB2131283EA121300EB8001534014
:1006A00000EB4100C00003F00F0343EA02130021F6
:1006B00000F10C024C309BB232443044297313F4E5
:1006C000004F14BF0E21072142F8041F5B00824235
:1006D0009BB2F4D112236360236843F001032360CB
:1006E00070BC7047F06400208C60002010B4026879
:1006F000047B11680223A340194209D006494068CF
:1007000000240C7001684FF6FE74214001605360B4
:100710005DF8044B704700BF0A27002070B5334BCB
:1007200093F84136022B82B0054638D0304B18681A
:10073000036847211B6898472E4C23691B0304D587
:10074000A3691868281A23F0FBFB2B4E2B4D307839
:1007500023F0F6FB206A2B681B1AD81780EA4300A7
:1007600023F0EEFB606A6B681B1AD81780EA43001F
:1007700023F0E6FB224B188823F0E2FB214B18887C
:1007800023F0DEFB204B188823F0DAFB95E80C0001
:10079000317884F83010A262E36202B070BD1B4B66
:1007A000186890F91A1047224C1C8DF807200ED0BB
:1007B000436840F2FF14C3F30803A34207D003EBDE
:1007C000412313495A54436801334360B4E7037E1D
:1007D00013F0060FB0D090F82830002BACD10122D6
:1007E0000DF1070124F0CAF9A6E700BFF866002062
:1007F000708200209C1D00205A2200205C220020D4
:100800005822002056220020D424002058820020A4
:100810004C7000202DE9F04F89B0874D139F149E36
:10082000AC6BDDF848A09B1A0293F31B9046019332
:1008300000290CBF04230623621C049300F0C1802E
:10084000A2455DDDDFF8089247B1019B04FB03F28E
:100850000123B95C2A698B4013424DD0029B6A6B1D
:1008600004FB03F408EB0406002A7FD158F80400C7
:10087000039230F083FD039A0530D9F800308342AB
:100880004ADA012009B0BDE8F08F6C4B1B6893F980
:100890001AE02C20BEF1FF3F8DF81F007ED0596872
:1008A00040F2FF1CC1F30801614577D001EB4E21F6
:1008B000DFF8A4E101F80E00596801315960002AFF
:1008C00056D158F804400393204630F057FD039B5F
:1008D000197E11F0060F07D093F8282022B902469E
:1008E0002146184624F04AF996F904104B1C36D0DC
:1008F000534823F039FDAC6B0134A245AC63A3DC53
:10090000A24500F08780686B049B834294BF00205F
:10091000012009B0BDE8F08F95F83C101B1AC9F80A
:10092000003061BB012385F83C300ABB454B58F8C9
:10093000044093F84136022B40D021780029D3D0CF
:10094000DFF818B1DBF8000003681B68984714F85B
:10095000011F0029F6D196F904104B1CC8D1AC6BCD
:100960000134A245AC633FF76FAFC9E7032084E7CA
:1009700016443548317923F0F7FCAC6BF0E7314B86
:1009800093F84136022B80D0DFF8D0B0DBF80000BE
:1009900003682C211B6898476A6BC6E7197E11F023
:1009A000060F8CD093F82810002988D10122184610
:1009B0000DF11F0124F0E2F86A6BB6E71F4B1B68CC
:1009C00081E76C6BA34203D8002009B0BDE8F08F2B
:1009D0001E4B059103EB840381461A69039210466E
:1009E00030F0CCFC1A4E039A336805990B309842CC
:1009F0003FF747AF032C98BF4946164823F0B4FC95
:100A00003368AC6B1B1A013400223360AC6385F889
:100A10003C2015E70E4A1368002B7FF774AF013BAB
:100A20000A20136023F04EFA686B4FF0FF33013059
:100A30006863AB6368E700BF9C1D002058820020FC
:100A4000E8900308F866002018A00308E867030888
:100A50005C410020D89003084C7000207082002078
:100A60002DE9F8438D498E4A8E4B8F4CD1ED024AC9
:100A7000646992ED026AD3ED027A91ED014AD2EDFA
:100A8000015A93ED017AD1ED003A92ED005AD3ED7F
:100A9000006A864B2060FDEEE33ABDEEC44AFDEEEF
:100AA000E44ABDEEC55AFDEEE55ABDEEC66AFDEE5E
:100AB000E66ABDEEC77AFDEEE77A04F1280204F19A
:100AC000300003F10801914288BF9842C4ED013A19
:100AD00084ED024AC4ED034A84ED045AC4ED055A7C
:100AE00084ED066AC4ED076A84ED087AC4ED097ADC
:100AF00000F28F801A43500740F08B801A685B68C1
:100B0000A262E3626A4D95ED130A33F063F995ED45
:100B1000140A814633F05EF995ED150A804633F0EC
:100B200059F9644A644BD2F834E0966B176B002194
:100B30000025002260F30F0569F30F016EF30F0229
:100B400004F13C0068F31F4166F31F4240EA0306CC
:100B500067F31F45216371076563A26304F14405D0
:100B60005CD19D4203F108018CBF00220122884222
:100B700028BF42F00102002A50D01A685B68E26385
:100B800023644E4B1A782AB34D4B04F14801181DCB
:100B9000A84288BF994246D80A2A44D9911E4908DA
:100BA0000131052998681E685D68E0644FEA4100DC
:100BB00018BF59696664A564DE681D6918BFA16520
:100BC00090422665656505D004EB400233F810308D
:100BD000A2F844303B4D3C4B3C4E3D483D493E4ADB
:100BE0002D8837688069DE6809885289A4F86C50BE
:100BF0001D695B69A4F86E70A4F87460A4F876505F
:100C0000A4F878302067A4F87A10A4F86620BDE82C
:100C1000F8835A681B68E262A36273E75A681B682C
:100C20002264E363ADE71988A4F84410012AD1D007
:100C30005988A4F84610022ACCD09988A4F8481004
:100C4000032AC7D0D988A4F84A10042AC2D0198927
:100C5000A4F84C10052ABDD05989A4F84E10062AD4
:100C6000B8D09989A4F85010072AB3D0D989A4F82C
:100C70005210082AAED0198AA4F85410092AA9D013
:100C8000598AA4F856100A2AA4D0998AA4F85810B0
:100C90000B2A9FD0DB8AA4F85A309BE73C650020E2
:100CA00048650020306500209C1D00202057002052
:100CB00034430020CC2100201C8A00209089002091
:100CC0002C570020AC400020982E0020F44000203B
:100CD000142200202C23002000650020F0B585B0F0
:100CE00000283BD0444CE38FB3F5805F36D3434BB1
:100CF000434D1B7884F84730424B43484349444AAC
:100D000093F841362D68007891F820101278256408
:100D1000022B84F8440084F8451084F8462001AD85
:100D200044D03C4B1868036853211B689847206CDB
:100D300023F006F994F8440023F002F994F84730C0
:100D400094F8451094F846200393284601910292A6
:100D500022F056FC0023E38705B0F0BD2B4D284957
:100D6000294A2B48254B2C4C0968127895F820709D
:100D700006781B78019101AD8DF8082021462846A0
:100D800008228DF809708DF80A608DF80B3035F067
:100D900003F90028E0D01B4B95E8030093F8413697
:100DA000022B84E80300A4F14004BAD11B4B18685D
:100DB00090F91A1053224B1C8DF803200ED0436873
:100DC00040F2FF16C3F30803B34207D003EB4123FD
:100DD00013495A54436801334360A8E7037E13F074
:100DE000060FA4D090F82830002BA0D101220DF1DD
:100DF000030123F0C3FE9AE79C1D0020D03B002096
:100E00000C250020F8660020542200200823002032
:100E10007482002070820020DC1D00205882002097
:100E20004C7000202DE9F04FAF4DB5F8483091B02F
:100E30008146002B40F06C81AC4C94F83F26012A8F
:100E400000F007821846FFF749FF4846FFF708FE03
:100E500094F84136D5F81490022B00F0C980A44BC9
:100E60001868036849211B689847E86C23F068F804
:100E7000D9F8000023F064F84F4609F10C0657F842
:100E8000043FD81780EA430023F05AF8BE42F6D157
:100E900009F1180756F8043FD81780EA430023F0F9
:100EA0004FF8B742F6D12B69DE0300F1A381980316
:100EB00000F1AB81590300F1B38109F128002EF054
:100EC000ABF8B4F8CC30B9F92E00C01A23F038F8DA
:100ED0002B69DA0400F1B2819F0400F1A9815E055B
:100EE00000F18281180500F16F81190400F177810A
:100EF00009F130002EF090F809F136002EF08CF850
:100F000009F13A0609F1420736F9023FD81780EA9B
:100F1000430023F015F8B742F6D1764BB9F94400F7
:100F20001B88C01A23F00CF8734B1B78012B40F37D
:100F30008480213309EB4303DFF8C4A16C4E6F4F6B
:100F4000019309F1440838F9023FB9F9441094F8C3
:100F50004126591ACB1783EA410BBBF17F0F0BD8FF
:100F600060E0306802681268904794F841264FEAC2
:100F7000DB1BBBF17F0F55D96BF07F01022AC9B291
:100F8000EFD1386840F2FF1C90F91AE08DF8131089
:100F9000BEF1FF3F1AD04268C2F30802624502EB7D
:100FA0004E2E13D00EF80A1042684FEADB1B0132B6
:100FB000BBF17F0F42606BF07F016FD990F91AE0AF
:100FC000C9B2BEF1FF3F8DF81310E4D1027E12F0DA
:100FD000060F03D090F82820002A57D04FEADB1BD9
:100FE000BBF17F0F6BF07F0158D9C9B23868CBE7EE
:100FF000424B186890F91A1049224F1C8DF81220A4
:1010000000F02F81436840F2FF16C3F30803B34298
:1010100000F0278103EB412339495A5443680133D7
:10102000436022E7022A5FFA8BF139D03068036807
:101030001B689847019B984585D12B699A0508D56F
:10104000B9F96630A3F2DC53D81780EA430022F0E6
:1010500077FF68692B492C4B2C4AA861441AA410CD
:1010600003FB04F3013382FB0342A2EBE37202EBC6
:1010700042029B1AC3EB431301EB83030122E86195
:101080006B6185F8C82111B0BDE8F08F01220DF128
:10109000130123F073FD94F8412668E75FFA8BF1A2
:1010A00038688DF8141090F91A20531C0ED043683C
:1010B00040F2FF1EC3F30803734507D003EB42233E
:1010C00003F80A10436801334360B3E7037E13F06B
:1010D000060FAFD090F82830002BABD1012205A924
:1010E00023F04CFDA6E700BF9C1D0020F866002001
:1010F000708200206E5C00209089002058820020C1
:101100004C700020F01D0020DF7BEFBD565555557B
:10111000664AD5F8CC311468A34207D0644BC5F8B1
:10112000CC411B78093B012B40F2D882614BD5F8AA
:10113000D0711E68BE4200F069825D4BC5F8D06177
:101140001B785D4C093B012B40F29B8094F83F16C5
:10115000B5F8483094F840060B44013BB3FBF0F27D
:1011600000FB1233994200F2AF80544B1B681A0601
:1011700089D5534E2B6A32689A4204D171686B6AE2
:10118000994200F0778294F84136022B00F04082B9
:101190004C4B1868036848211B6898473268D01781
:1011A00080EA420022F0CCFE7368D81780EA430040
:1011B00022F0C6FE96E80C0048462A626B62FFF7F2
:1011C000ADFA11B0BDE8F08FD9F87030D81780EAC9
:1011D000430022F0B5FE2B6919047FF589AEB9F8FA
:1011E0007A0022F0ADFE83E609F174002DF014FFC1
:1011F0002B6977E6D9F81C30580080EAE37022F0BA
:101200009FFE2B6998037FF555AED9F82030580022
:1012100080EAE37022F094FE2B6959037FF54DAE0E
:10122000D9F82430D81780EA430022F089FE44E63A
:10123000B9F86E0022F084FE2B6950E6B9F86C30E4
:10124000B5F85000C01AC0F30D0022F079FE2B69EA
:1012500042E694F84036A3F12000B0FA80F040094D
:10126000F1E5037E13F0060F3FF4FFAD90F8283050
:10127000002B7FF4FAAD01220DF1120123F07EFC68
:10128000F3E594F84136022B00F08F830D4B18687C
:10129000036845211B6898471E2022F013FE304644
:1012A00022F04EFE384622F04BFE4FE7443E00202F
:1012B000C98200200C250020F8660020404C002048
:1012C00030230020708200200120FFF707FD4846F0
:1012D000FFF7C6FB94F84136D5F81480AF69022BAE
:1012E00000F0BA83BF4B1868036850211B68984709
:1012F0006B69AA69E8691968036812680B44A3EB73
:101300004203D81780EA430022F01AFE7A68D8F820
:1013100004309B1A0893BA68D8F808309B1A0993CE
:10132000D8F80C30FA689B1A0A9308AB01931E4652
:101330000DF12C0A56F8043BD81780EA430022F03E
:10134000FFFDB245F6D13A69D8F810309B1A0893E0
:101350007A69D8F814309B1A0993D8F81830BA690A
:1013600008A89B1A0A9322F04BF92B69D90300F1C4
:10137000A6839A0300F1C9835B0300F1BC83B7F92C
:101380002830B8F92820D21A0892B7F92A30B8F9CB
:101390002A10C91A0991B7F92C30B8F92C00C01AD3
:1013A0000A90B8F92E30B7F92E609B1B0B932BB126
:1013B00003F108060F2E00F2AB8101239B0030B130
:1013C00000F108060F2E00F29B8143F001039B0001
:1013D000DBB231B101F108000F2800F2898143F03E
:1013E00001039B00DEB232B102F108030F2B00F2C1
:1013F000AF8146F0010694F84136022B00F0478396
:10140000784B1868036831461B6898470023DFF85B
:10141000D4A1CDF808800397A0460DF1200B1F46FC
:101420001C4606F00303022B00F0E280032B00F0C1
:10143000A880012B00F09C800BF1040B0CAB5B45EA
:101440004FEA9606EDD123463A464446039FDDF81F
:101450000880002B40F084832B6913F4805600F041
:101460000781B7F86C10B8F86C20521A0892022164
:1014700001269A040BD5B8F86E20B7F86EE010A8D4
:1014800000EB8600A2EB0E020E4640F8202C580519
:101490001ED5B7F97400B8F9742010A901EB8601C4
:1014A000121A41F8202CB7F97600B8F9762010A965
:1014B00001EB8601121A41F81C2CB8F97820B7F913
:1014C000780010A901EB8601121A41F8182C033696
:1014D00019053ED5D8F87020396F10A800EB8600AA
:1014E000521A40F8202C1A0406F1010634D4012EB9
:1014F00000F0918308AB03EB86020021731E52F8C3
:10150000040D49000028C9B203F1FF3318BF41F0B0
:101510000101581CF3D194F84136022B00F0FF80F2
:10152000304B186803681B6898474FF0000ADDF8D5
:1015300004B002E0B24580F216815BF8043B0AF188
:10154000010A002BF6D0D81780EA430022F0F8FCFD
:10155000F0E71B0440F10481B8F87A30B7F87A104C
:1015600010AA02EB86025B1A42F8203C0136BEE765
:10157000002C40F0AF82DBF8002011011C46CFB2F6
:101580005AE7DBF8002098F84136002C40F08780BD
:10159000022BC2F3072100F0CB81DAF800000368C8
:1015A0001B68984798F841369BF80010022B27D10A
:1015B0000D4B1868436890F91AE0C3F30803BEF1B5
:1015C000FF3F8DF81C1000F0FC8240F2FF129342A6
:1015D00000F0F78203EB4E23044A99544368013329
:1015E000436029E770820020588200204C70002060
:1015F0004CBB98F841369BF80010022B00F071812B
:10160000DAF8000003681B68984715E7BF4C9DE5B2
:10161000BF4B482118688DF8201090F91A40436894
:10162000B4F1FF3FC3F3080340F2FF1700F0498114
:10163000BB4200F0468103EB4423B64C1955436886
:1016400001334360ABE5DBF8003098F84126C3F383
:101650000311022A41EA070100F08B81DAF8000049
:1016600003681B689847DBF800301901CFB2E3E646
:101670000121FEE6B5F84830102B00F0E681A64BBC
:1016800095F830201B789A4205D1A44BAA6A1968B4
:10169000914200F0B9824846FFF740F8F3E4C2F304
:1016A0000331022B41EA070100F09981DAF80000CA
:1016B00003681B68984798F84136DBF80020022B36
:1016C000C2F3071100F00883DAF8000003681B6812
:1016D0009847DBF800201101CFB2ADE6452022F09B
:1016E000F1FB002022F0EEFB204622F029FC1DE554
:1016F0008031FF298CBF43F0030343F0020370E6FF
:101700008030FF288CBF43F0030343F002035EE602
:101710008033B3F5807F34BF022303234EE67C4B36
:101720008DF81F10186890F91A20531C00F00882D9
:10173000436840F2FF1EC3F30803734500F00082C4
:1017400003EB4223734A9954436801334360ECE648
:101750008032FF2A94BF46F0020646F003064AE6AE
:10176000002E7FF4C4AEAE69E9696B69019406F19D
:10177000340206F12E0A03F12E0B01F12E06144657
:101780003AF9023F36F9020F3BF9021F034403EB1B
:10179000D373A1EB6303D81780EA430022F0D0FB98
:1017A0005445EDD1AE69E9696B6906F13A0206F17B
:1017B000340A03F1340B01F1340614463AF9023FBE
:1017C00036F9020F3BF9021F034403EBD373A1EB7D
:1017D0006303D81780EA430022F0B2FB5445EDD1F1
:1017E0006B69AE69E96903F13A0B06F142025B46A7
:1017F00006F13A0A01F13A06B34614461E463AF992
:10180000023F3BF9020F36F9021F034403EBD37387
:10181000A1EB6303D81780EA430022F091FB544503
:10182000EDD13F4B019C1B786869AA69EE69FBB159
:1018300000F1420B213302EB4303423602F1420A2C
:101840005A460194B3461C4616463AF9023F3BF904
:10185000020F36F9021F034403EBD373A1EB6303BA
:10186000D81780EA430022F06BFBA245EDD1019C22
:101870002B69990509D5B8F96630B7F966209B1A26
:10188000D81780EA430022F05BFB68692549264BA4
:10189000264A461AB61003FB06F3013382FB0362A5
:1018A000A2EBE37202EB42029B1AC3EB431301EB80
:1018B0008303AA696B610123A861EA6185F8C831D5
:1018C00053E4037E13F0060F3FF469AC90F8283020
:1018D000002B7FF464AC012208A923F04FF9326891
:1018E0005DE40B4B8DF81910186890F91A20531C01
:1018F00000F04781436840F2FF1EC3F308037345BD
:1019000000F03F8103EB422366E600BFF86600204B
:10191000588200204C7000205A2200205C220020B7
:1019200090890020F01D0020DF7BEFBD56555555F6
:10193000C54B8DF81B10186890F91AE04368BEF18A
:10194000FF3FC3F3080340F2FF1C00F02A81634508
:1019500000F0278103EB4E23BC4A9954436890F969
:101960001AE001334360DBF80020C3F30803D1B26F
:1019700025E6B54A8DF81A10106890F91AE0BEF104
:10198000FF3F00F08781426840F2FF1CC2F308026B
:10199000624500F07F81AD4B02EB4E22D15443688B
:1019A00001334360DBF800305FE6A74B186890F91D
:1019B0001A1045224B1C8DF8152000F03381436826
:1019C00040F2FF1EC3F30803734500F02B8103EBC5
:1019D00041239E495A544368013343605CE49A4B67
:1019E0008DF81D10186890F91AE04368BEF1FF3FAA
:1019F000C3F3080340F2FF1C00F03C81634500F094
:101A0000398103EB4E23914A9954436890F91AE0C7
:101A100001334360DBF80020C3F30803C2F307116E
:101A2000BEF1FF3F8DF81E1000F0128140F2FF1C46
:101A3000634500F00D8103EB4E23844A99544368BB
:101A400001334360DBF8002045E6B5F8D4315B068E
:101A50007FF415AEFFF797BB7B4B186890F91A100F
:101A600043685022B1F1FF3FC3F308038DF81620FD
:101A700040F2FF1678D0B34276D003EB412373498E
:101A80005A544368013343603A46434632E46E4B4E
:101A90008DF81760186890F91A204368B2F1FF3F7B
:101AA000C3F3080340F2FF113AD08B4238D003EB66
:101AB0004223664A9E54436801334360A6E4D8F843
:101AC0001C30FA699B1A580080EAE37022F038FA59
:101AD0002B694EE4DBF8003098F8412603F00F0341
:101AE000022A43EA07017BD0DAF8000003681B688A
:101AF00098470024A0E4D8F824307A6A9B1AD817B3
:101B000080EA430022F01CFA39E4D8F820303A6A1F
:101B10009B1A580080EAE37022F012FA2B692BE43A
:101B2000037E13F0060F3FF471AC90F82830002BC1
:101B30007FF46CAC01220DF1170123F01FF865E46E
:101B4000037E13F0060F3FF4F0AC90F82830002B22
:101B50007FF4EBAC01220DF11F0123F00FF8E4E458
:101B6000104622F0AFF977E4037E13F0060F04D09D
:101B700090F82830002B00F0B7803A464346FFF734
:101B8000B9BB037E13F0060F3FF456AC90F8283033
:101B9000002B7FF451AC01220DF1190122F0EEFF70
:101BA0004AE4017E11F0060F3FF4E1AE90F82810F0
:101BB00000297FF4DCAE01220DF11B0122F0DEFFD3
:101BC000F0E4037E13F0060F3FF436AC90F82830B3
:101BD000002B7FF431AC012207A922F0CFFF2BE4C8
:101BE000194B8DF81810186890F91A204368B2F153
:101BF000FF3FC3F3080340F2FF145DD0A3425BD064
:101C000003EB42230024E7E45A68EB6A9A427FF42C
:101C100042ADFFF738BA089BD81780EA430022F09C
:101C20008FF9A0E5037E13F0060F3FF435AB90F873
:101C30002830002B7FF430AB01220DF1150122F08A
:101C40009DFFFFF729BB00BF588200204C70002089
:101C5000037E13F0060F3FF43EAD90F82830002BC2
:101C60007FF439AD01220DF11E0122F087FFDBF870
:101C7000002030E5017E11F0060F3FF4CFAE90F862
:101C8000281000297FF4CAAE01220DF11D0122F0B7
:101C900075FF10E5027E12F0060F3FF4E6AC90F8F7
:101CA0002820002A7FF4E1AC01220DF11A0122F074
:101CB00065FFDBF80030D8E4037E13F0060302D0A2
:101CC00090F8284014B10024FFF7B6BB012206A902
:101CD00022F054FFFFF7B0BB084B1868436890F937
:101CE0001AE0C3F308039BE601220DF1160122F06E
:101CF00045FF6B69AA69FFF7FDBA00BF5882002053
:101D00002DE9F04190F84450002280F8442015B9A4
:101D10000120BDE8F08118490B6813B91846BDE8E9
:101D2000F0810B68052B02D01046BDE8F081134E00
:101D3000DFF84C80376800F13004D8F800302946CD
:101D4000204683B922F0E6FE3368DB1B322BA5EB7D
:101D5000000504440BD8002DDAD0D8F8003029460D
:101D60002046002BEED03368DB1B322BE5D9B5FAC9
:101D700085F04009BDE8F08168410020C0210020C5
:101D8000CC410020002280F84520B9E790F844308B
:101D90005A1C0344D2B280F8442083F8301090F8E3
:101DA00045300BB1132A00D9AAE77047134B1868C6
:101DB00000B970471B68052BFBD12DE9F041104E8F
:101DC000002A1446376816DDDFF838800D460AE031
:101DD00022F0A0FE3368DB1B322BA4EB0004054489
:101DE00009D8002C07DDD8F8003021462846002B02
:101DF000EED00020EEE7BDE8F08100BF6841002092
:101E0000C0210020CC4100202DE9F041274D284E73
:101E1000284F82B02B68002B3FD12C685FFA84FCDE
:101E2000002C3ED0002396F8D601DFF88CE01A464D
:101E30000EEB03010DF1080801334244DBB2095CEB
:101E400002F8041CA3421A46F2D32B681B1B2B601A
:101E5000D5F80080604486F8D601B8F1000F06D0AE
:101E6000002CD7D09DF8040002B0BDE8F0814021DD
:101E7000032017F0D3F93B6886F8D68123F480431A
:101E800023F070039BB283F4405343F4004343F0C8
:101E900080033B60002CBDD0E4E74FF0010C6446AA
:101EA000C0E796F8D601A446CFE700BFC84100209E
:101EB0009C1D00200C5C00408841002008B51AF0F1
:101EC0002FFF044B5B68C01AC0F5FA5020EAE0709F
:101ED00008BD00BFF066002000B5002083B02CF0E4
:101EE00087FF142013F0A2F90F202CF081FF0A20A5
:101EF00013F09CF901AA032110202CF08DFF0A2079
:101F000013F094F99DF90430DFED277ADFED275ABD
:101F100006EE103A9DF9053006EE903A9DF906302E
:101F200007EE103AB8EEC66AF8EEE66AB8EEC77A7F
:101F300076EEE76A36EE676A37EE677AF7EE007A92
:101F4000B0EE675AA6EE255A194B0020B0EE456A4E
:101F5000B0EE675AA6EEA55AE7EE257AF3EE0E5AD2
:101F600026EE256A25EE257A67EEA57A83ED006ACE
:101F700083ED017AC3ED027A2CF03AFF0A2013F0C8
:101F800055F90DF10302012102202CF045FF0DF15E
:101F90000302012109202CF03FFF02202CF028FF32
:101FA000012003B05DF804FB000000430000803B0B
:101FB0000000002070B582B06B460622F721762023
:101FC0002CF036FC9DF801209DF804309DF800604F
:101FD0009DF803509DF802409DF805000749120145
:101FE0001B0142EA063243EA053342EA141243EA8D
:101FF0001013CA608B6002B070BD00BF9C1D002032
:1020000013460A46014668202CF012BC3122F42106
:1020100076202CF09FBB00BF0A46014668202CF0BA
:1020200099BB00BF2DE9F0410C4C0D4D8046206856
:1020300016460F460FF082FC48F0800128460FF04C
:10204000F5FD3B463146002228460FF0A1FD2068F1
:102050000FF07AFC0120BDE8F08100BFF0430020C2
:102060000030014038B50A4C2378054643B90023B7
:102070002A46617823704920FFF7D4FF012038BD3C
:10208000FFF71CFF0028F2D013F076F8EFE700BF4F
:10209000F0660020F0B54B4C94F8D751012D83B079
:1020A00063D079D3022D5DD1474B1B780646002BB8
:1020B0007DD16846FFF7D6FF002853D09DF8063043
:1020C00013F003034ED184F8D7319DF801E09DF859
:1020D00000109DF803709DF802209DF805509DF8B2
:1020E00004303A4C41EA0E2142EA072243EA052332
:1020F00009B212B21BB2494252425B4206EE901A3A
:1021000007EE102A07EE903A94ED005AD4ED015AEA
:1021100094ED026AF8EEE66AB8EEC77AF8EEE77A6E
:1021200066EE856A27EE257A67EE867AFDEEE66A28
:10213000BDEEC77AFDEEE77A16EE901A17EE102A7A
:1021400017EE903A31807280B38003B0F0BD3378DF
:102150002BB9072103202CF07DFE94F8D7510135CF
:1021600084F8D751002003B0F0BD174E33781BBB65
:102170006846FFF777FF9DF8003008B19B07E6D16E
:10218000002384F8D731337853B100230133002082
:1021900084F8D73103B0F0BD0B4E3378002BF4D167
:1021A000012102202CF056FE94F8D731EEE7FFF71C
:1021B00085FE0028D6D17CE7FFF780FE0028D7D027
:1021C000D0E700BF9C1D0020F0660020000000202A
:1021D000F8B50A4C0A4D074620680E460FF0AEFBD4
:1021E000394628460FF022FD314628460FF01EFDE5
:1021F00020680FF0A9FB0120F8BD00BFF0430020CC
:102200000030014038B5C36A04463BB118780EF07F
:1022100043FF05460FF0A8FB00284ED0636B8021DA
:102220006B209847642013F001F8636B0721682046
:102230009847642012F0FAFF636B00216B209847E7
:10224000642012F0F3FF0121636B6B2098470F208D
:1022500012F0ECFF94F82320636B012A8CBF1A2143
:1022600018211B2098470F2012F0E0FF636B182104
:102270001C2098470F2012F0D9FF636B94F82210AE
:102280001A2098470F2012F0D1FF636B94F82410A6
:1022900019209847642012F0C9FF636B1021372082
:1022A00098470F2012F0C2FF636B01213820984736
:1022B0000F20BDE8384012F0B9BF20230146E87175
:1022C000AB7128460FF07EF921460A4B41F8143FC6
:1022D00028462CF0A9FCAB88B3FA83F3C3F11F03A3
:1022E0005A1C9BD004490122086802FA03F30343F5
:1022F0000B6093E7D50400080004014038B5144C86
:10230000054620462CF060FD012012F035FF2846DE
:10231000FFF778FF10216A20FFF75AFF642012F0C0
:1023200085FF238823F040031B041B0C2380238894
:1023300023F038031B041B0C238023889BB243F03B
:10234000400323800120BDE8384012F015BF00BFD4
:102350000030014070B5204C23780B2B08D80122A7
:102360009A4040F603010A4208D112F4C06F06D128
:102370001A4A1B4B12689A630B23237070BD093BEA
:10238000012BF5D8452021F09DFDFF2021F09AFD7D
:10239000144B93F84136022B0ED0134D134E4521AA
:1023A000306803681B68984715F8011F0029F7D1AA
:1023B000002021F087FDDBE70D4B1868037E13F04A
:1023C000060FF5D090F82830002BF1D10A220649EB
:1023D00022F0D4FBECE700BFC9820020C02100201E
:1023E0009C1D0020F8660020F090030870820020F9
:1023F00058820020A14B1B78012B00D070472DE99B
:10240000F04F9F4D95F83F0685B010B195F84066A6
:102410004EBB012385F83F3685F8403695F84136A6
:1024200023B1022B35D0002385F84136954B9649D0
:102430001B6800220A701A88100600F130831A897E
:10244000160600F15D831A8A140600F160831A8B68
:10245000100600F15F8304230B70884A0023137079
:1024600005B0BDE8F08FB042D3D20146324600E05D
:102470001A4691FBF2F302FB13131146002BF7D11E
:1024800090FBF2F096FBF2F285F83F0685F84026C5
:10249000C4E77E4B5A78012ADFD941F2B5129B5C22
:1024A000002BDAD17A4E402386F8D93179497A4B1C
:1024B000D1F800B095F83F16DFF8ECA1774A95F80F
:1024C0004076106895F8C322DFF8E081DFF8E0C1BC
:1024D000D8F800809CF800C00C461988A6F8501067
:1024E000CBF3C03103910AF1340171610AF1B001FB
:1024F000B1610AF59671F1610021316295F8773288
:10250000CAF80410CAF80810CAF80C10CAF810105B
:10251000A2F1190ABC42BAFA8AFA0BF40069C0F3B4
:10252000800ECBF3400BC0F3C0004FEA5A1A95F867
:1025300044522CBF00270127002B70D0012A00F045
:102540005B81B9F1000F40F0D08001214B468946F4
:102550004A1ED2B2551E132D10D8DFE805F00A0A24
:102560000A0A0A0A0A0A2C28171B14120F1F1F1F17
:1025700030129445B4BF0025012515B109FA02F2C5
:102580001343142920D80131C9B2E1E77546002D63
:10259000F4D1F8E75D46002DF0D1F4E708EB020531
:1025A0002D79003518BF0125002DE7D1E9E7054653
:1025B000002DE3D1E7E75546002DDFD1E3E73D46A7
:1025C000002DDBD1DFE7039E2D4A336102F150017C
:1025D00002E00432914220D092F895351A2BF8D1BE
:1025E00092F8970592F898359842F2D201232C4937
:1025F0002C4A86F8DA310023F364A6F84830A6F8AE
:10260000D43186F8C8311D4B08681168C6F8CC0172
:102610000222C6F8D0111A7022E70023E7E7012A48
:1026200000F02B81B9F1000F40F0A18001214B4651
:1026300089464A1ED2B2551E132D12D8DFE805F086
:1026400042424242424242423E193A4916144D0A1F
:102650000A0A511408EB02052D79003518BF01252F
:1026600015B109FA02F213431429ADD80131C9B2E8
:10267000DFE70546002DF4D1F8E700BFC98200204E
:10268000F8660020204C0020244C002034700020EC
:102690009C1D0020404C0020AC4000205022002017
:1026A000443E00200C250020BC1D0020F02E002000
:1026B000908900207546002DD3D1D7E75546002DCF
:1026C000CFD1D3E76245CCBF00250125002DC8D16D
:1026D000CAE75D46002DC4D1C8E7039D002DC0D1D7
:1026E000C4E73D46002DBCD1C0E7012D00F0488174
:1026F00001250B46A9466A1ED2B2511E132910D8D5
:10270000DFE801F00A0A0A0A0A0A0A0A2420181C49
:1027100015120F28282831129445B4BF0021012139
:1027200011B109FA02F21343142D3FF64DAF0135F2
:10273000EDB2E0E771460029F3D1F8E759460029E8
:10274000EFD1F4E701460029EBD1F0E7514600292B
:10275000E7D1ECE708EB02010979003118BF01214C
:102760000029DED1E0E739460029DAD1DFE7012D83
:1027700000F0D381012189464A1ED2B2551E132D85
:1027800012D8DFE805F02626262626262626221A37
:102790001E2D1714310A0A0A351408EB02052D798B
:1027A000003518BF012515B109FA02F213431429A7
:1027B0003FF60AAF0131C9B2DEE70546002DF3D17D
:1027C000F8E77546002DEFD1F4E75546002DEBD123
:1027D000F0E79445B4BF00250125002DE4D1E6E7DC
:1027E0005D46002DE0D1E5E7039D002DDCD1E1E75A
:1027F0003D46002DD8D1DDE7012D00F0CF81B9F1A4
:10280000000F00F083800B469146511EC9B24D1E49
:10281000132D12D8DFE805F02626262626262626A2
:10282000111A221E1714110A0A0A2D1408EB0105A9
:102830002D79003518BF012515B109FA01F10B43B7
:10284000142A3FF6C1AE0132D2B2DEE70546002DB2
:10285000F3D1F8E75D46002DEFD1F4E77546002D82
:10286000EBD1F0E78C45B4BF00250125002DE4D164
:10287000E6E73D46002DE0D1E5E7B9F1000F40F075
:10288000BD80DDF80CA003964B461546511EC9B21B
:1028900001F1FF39B9F1130F10D8DFE809F00A0A86
:1028A0000A0A0A0A0A0A0F24201815121C282828C6
:1028B00033128C45B4BF0026012616B105FA01F18A
:1028C0000B43142A3FF67FAE0132D2B2DEE75E46FA
:1028D000002EF3D1F8E75646002EEFD1F4E7764606
:1028E000002EEBD1F0E70646002EE7D1ECE708EB2F
:1028F000010999F8049019F1000618BF0126002E6D
:10290000DCD1DEE73E46002ED8D1DDE74B469146CE
:10291000511EC9B24D1E132D10D8DFE805F00A0A6A
:102920000A0A0A0A0A0A0F201C1815120F24242466
:102930002D128C45B4BF0025012515B109FA01F10E
:102940000B43142A3FF640AE0132D2B2E0E75D46B7
:10295000002DF3D1F8E77546002DEFD1F4E70546D9
:10296000002DEBD1F0E708EB01052D79003518BFFC
:102970000125002DE2D1E4E73D46002DDED1E3E75D
:102980000B46A9466A1ED2B2511E132912D8DFE89F
:1029900001F02A2A2A2A2A2A2A2A261A221E111451
:1029A000110A0A0A311408EB02010979003118BF33
:1029B000012111B109FA02F21343142D3FF604AEBE
:1029C0000135EDB2DEE701460029F3D1F8E75946BB
:1029D0000029EFD1F4E771460029EBD1F0E7514629
:1029E0000029E7D1ECE79445B4BF0021012100297B
:1029F000E0D1E2E739460029DCD1E1E7012D00F022
:102A00004F81DDF80CA01546511EC9B201F1FF3906
:102A1000B9F1130F14D8DFE809F00A0A0A0A0A0A02
:102A20000A0A1326211C1916382B2B2B3D168C4510
:102A3000B4BF4FF000094FF00109B9F1000F02D007
:102A400005FA01F10B43142A3FF6BEAD0132D2B2B2
:102A5000DAE7D946B9F1000FF2D1F7E7F146B9F15B
:102A6000000FEDD1F2E78146B9F1000FE8D1EDE7B3
:102A700008EB010999F8049019F1000918BF4FF00B
:102A80000109B9F1000FDBD1DDE7D146B9F1000F43
:102A9000D6D1DBE7B946B9F1000FD1D1D6E7012095
:102AA00008707A495E7993F9020051F82630784E21
:102AB000802A14BF02270127B3F5613F14BF00210C
:102AC00002210222019100928021002286F8D87111
:102AD0001EF07CFB6F4B70491B68704A03EB43038D
:102AE000A1FB03135B09106008D0402BA8BF402353
:102AF00086F8D93100287FF4D9ACAEE40123F7E79A
:102B00000226012013EBC0030E70CAD1A5E40326F0
:102B10000220F7E704260320F4E7A9466A1ED2B292
:102B2000511E132910D8DFE801F00A0A0A0A0A0A1E
:102B30000A0A2D29181C0F12312020203512944525
:102B4000B4BF0021012111B109FA02F21343142D7F
:102B50003FF63AAD0135EDB2E0E771460029F3D119
:102B6000F8E759460029EFD1F4E708EB02010979AB
:102B7000003118BF01210029E6D1E8E7014600290C
:102B8000E2D1E7E751460029DED1E3E703990029C6
:102B9000DAD1DFE739460029D6D1DBE7B9F1000FFA
:102BA00039D00B46A9466A1ED2B2511E132910D83D
:102BB000DFE801F00A0A0A0A0A0A0A0A0F29251898
:102BC0000F120F1C1C1C2D126245CCBF00210121CD
:102BD00011B109FA02F21343142D3FF6F5AC013599
:102BE000EDB2E0E759460029F3D1F8E708EB02011E
:102BF0000979003118BF01210029EAD1ECE77146BB
:102C00000029E6D1EBE701460029E2D1E7E73946A2
:102C10000029DED1E3E74B46A9466A1ED2B2511E17
:102C2000132912D8DFE801F0262626262626262696
:102C3000111A221E1714110A0A0A2D1408EB020198
:102C40000979003118BF012111B109FA02F21343C9
:102C5000142D3FF6B9AC0135EDB2DEE7014600298F
:102C6000F3D1F8E759460029EFD1F4E7714600297E
:102C7000EBD1F0E79445B4BF002101210029E4D154
:102C8000E6E739460029E0D1E5E700BF908F030869
:102C90009C1D0020503E0020D34D62107082002009
:102CA00029466A1ED2B202F1FF39B9F1130F17D8C3
:102CB000DFE809F034343434343434341629241F32
:102CC00016192E0A0A0A3E1908EB020999F804900F
:102CD00019F1000918BF4FF00109B9F1000F02D036
:102CE00001FA02F21343142D3FF66EAC0135EDB23A
:102CF000D7E7D946B9F1000FF2D1F7E7F146B9F1BC
:102D0000000FEDD1F2E78146B9F1000FE8D1EDE710
:102D1000DDF80C90B9F1000FE2D1E7E76245CCBFD6
:102D20004FF000094FF00109B9F1000FD8D1DAE7EF
:102D3000B946B9F1000FD3D1D8E700BF2DE9F04F64
:102D4000AF4EB04D3378DA1E052A8DB0074640F2FB
:102D5000B780023B092B25D8DFE813F0D4014302EA
:102D60001801390164017E0193019E01C101E40152
:102D7000A54C6378032B15D141F2A4020123A25C78
:102D80003B75002A01F0448141F2E802A25C002A6E
:102D900001F03F8141F22C13E35C002B01F0B7817D
:102DA00000233B7595F84136022B11D1964A41F22A
:102DB000B513D35C5BB1954C94F8DB3101223270D2
:102DC00013B1002384F8DB310DB0BDE8F08F02238E
:102DD00095F84226002AF7D08D4A116811F48051E7
:102DE00000F03683B5F8EC108A48B0F90420B0F949
:102DF0000270B0F906408F4208BF8A4214BF012218
:102E00000022B0F908708C4218BF42F00102B0F9FC
:102E10000A408F4218BF42F00102B0F90C708C4298
:102E200018BF42F00102B0F90E408F4218BF42F0C5
:102E30000102B0F910708C4218BF42F00102B0F9E3
:102E400012408F4218BF42F00102B0F914708C4258
:102E500018BF42F00102B0F916408F4218BF42F08D
:102E600001028C4218BF42F00102002A40F06E823B
:102E7000B0F900208A4240F06982674F634C3A689B
:102E8000D4F8DC11914200F269823378012B9BD097
:102E900094F8DB21002A97D00B2B0CD801229A4002
:102EA00040F603010A428CD112F4C06F03D0093BF3
:102EB000012B41F2CB803B68A3630B23337080E787
:102EC00095F84126002A00F0F581022A40F0BE82E2
:102ED0004D4C41F22702A25CD00740F11C83002236
:102EE00041F23701615CC90706D441F23601615CE9
:102EF000012998BF02F5007241F24701615CC807E1
:102F000006D441F24601615C012998BF02F50072C6
:102F100041F25701615CC90706D441F25601615C78
:102F2000012998BF02F5007241F26701615CC80790
:102F300006D441F26601615C012998BF02F5007276
:102F400041F27701615CC90706D441F27601615C08
:102F5000012998BF02F5007241F28701615CC80740
:102F600006D441F28601615C012998BF02F5007226
:102F700041F29701615CC90706D441F29601615C98
:102F8000012998BF02F50072104699E1234A029286
:102F9000A2F10C03292101930091A2F10A0350210F
:102FA000163A4920FDF736FC00287FF4FBAE184B9B
:102FB0001A6812F0800200F0AC87144A95F8413686
:102FC000506305214FF0FF3090633170ECE6144BF5
:102FD000002102208DE80300A3F10802029148209D
:102FE000FDF718FC00287FF4DDAE084A95F841365D
:102FF000506306214FF0FF3090633170D4E600BF7C
:10300000C9820020F8660020347000209C1D00203A
:10301000404C0020485D0020C02100208668030845
:10302000646A0308BE4A0292A2F10C0307240193CA
:103030000094A2F108030021143A4720FDF7EAFBAF
:1030400000287FF4AFAEB74B34704FF0FF325863B7
:103050009A6395F84136A7E6B34B002105208DE829
:103060000300A3F1080202915320FDF7D3FB0028CF
:103070007FF498AEAB4A95F841365063082232701F
:1030800092E6AA4B1B683F2B00F3EC8195F8413682
:10309000002B7FF489AE9BE6A54BA24C1B6813F076
:1030A000806FB4F8483000F02381002B40F020817D
:1030B000D4F84C80452020F005FF0E2020F002FFC0
:1030C000404620F03DFF384620F03AFF4FF4805252
:1030D0000A233846E2873370FDF7A4FE06E1914CDF
:1030E00094F8DA31002B00F0FE80914B1B685B01F5
:1030F00000F1F98094F8DB31002B40F0F4800923D3
:103100003370F3E095F84136022B00F09185894A3F
:1031100084491268854C8A63032000224A63226036
:10312000307041E695F841367E4C022B40D194F840
:10313000C821814F002A40F0F781D7F80080B8F10C
:10314000000F31D098F8002072B398F82830002B87
:103150007FF42CAE98F81820C8F8383088F83C3046
:103160000423D8F8241088F8283012F00803C8F88F
:103170002C10C8F8301003D0704A41F29413D35881
:10318000C8F834304FF00009C8F82490C8F8089007
:10319000C8F80C90404623F0A3FF0523C8F84090E0
:1031A00088F8283095F841360021042239603A75B4
:1031B0006049A26B0968C8328A420CD3002B00F028
:1031C000F486022B7FF404AE18F060FF95F84136C8
:1031D00000283FF4E9AD002B00F0B68601223270E2
:1031E000E2E5504C534AA36B126864339342BFF438
:1031F000D9ADDFF83881D8F800303F2B7FF746AFE4
:10320000626B95F84136DFF84091402711E0D9F81C
:10321000000003681B689847626B95F84136D8F840
:10322000001001320139013F6263C8F8001000F05C
:10323000C8864349114491F8281099B3022BE6D16E
:103240003D48059340F2FF1ED0F800C08DF82010D5
:103250009CF91AA0BAF1FF3F00F0C884DCF80430F2
:10326000C3F3080BF3450BEB4A2A00F0BF84354B40
:103270000AF80310324BD8F80010013203EB020AAF
:10328000DCF80430626303F1010B0139013FCCF833
:1032900004B0C8F8001000F0C1849AF82810002982
:1032A000D2D1059B00204FF0FF3104226063A1635F
:1032B000327079E5244A106803689B689847337830
:1032C000DFF868E0174CDEF8002094F8D9110A44C2
:1032D000B2F5807FA8BF4FF480728242A8BF024639
:1032E000CEF8002035E53846FDF79CFDB4F84830AF
:1032F000E18FE26C01339BB201310132202BA4F843
:103300004830E187E2647FF44DADB4F8D42195F8FC
:10331000413601320021A4F8D421A4F8481043E535
:10332000806A03089C1D0020C86A03085C410020D5
:103330000C250020C021002058820020347000207D
:10334000E86703084C70002070820020AC4AAD4C46
:10335000126802F59C520832C4F8DC213278012A46
:103360007FF432AD94F8DB1100297FF42DAD002BF2
:1033700066D1A549A54D0868A5492B7091F900E0D3
:1033800091F90C7091F9186091F92430002800F03F
:103390005086018801F0810181290DD190F9021038
:1033A0008E4500F081868F4200F07A868E4200F0D2
:1033B00073868B4200F0678610F1080212D01188E4
:1033C00001F0810181290DD192F90220964500F08A
:1033D0008D86974200F08886964200F0838693425D
:1033E00000F07E8610F1100F12D0028A02F08102E6
:1033F000812A0DD190F91220964500F090869742CF
:1034000000F08B86964200F08686934200F081861B
:1034100010F1180F12D0028B02F08102812A0DD117
:1034200090F91A20964500F03E86974200F03786C4
:10343000964200F03086934200F0248604232B70DD
:10344000FEF7D8FF012384F8DB31BDE4002037E725
:10345000704A1268127A053A032A7FF6C5ACB5F8AD
:10346000D010C1E495F89425664C742303FB0253F5
:10347000616B93F884344A2900F22285DFE811F069
:1034800085007C007100A3039B0395038F03B003A9
:10349000A803B901B201A801A20195018F01890118
:1034A00083017501670181037303650357034903B2
:1034B0003B0329031C030F030203F502E802760213
:1034C00069025C02530246023D0234022B022202D0
:1034D000190210020702FE01F501EC01E301DA0115
:1034E000D101C801BF0127011E01180112010C0101
:1034F00006010001F800F000AE00A800A2009C0048
:10350000960090008A0061015B0155014F0149015D
:103510003B013501300141F22602A25C022A34BF90
:103520004FF400720022DBE4386800283FF43CAE20
:103530000278002A3FF438AE90F82830002B7FF450
:1035400035AC82684168C3628A424FF0030338BFDA
:103550000A4680F82830826017F0C6FE95F841369A
:1035600022E62D4A2D492E4820F07EFD626B95F80B
:1035700041360132626317E42A4B00932A4A2B4BEF
:103580002B492C4820F070FDF0E72B492B4820F008
:103590006BFDEBE795F88212294820F065FDE5E721
:1035A00095F88012274820F05FFDDFE795F8C012FC
:1035B000254820F059FDD9E795F80F12234820F04F
:1035C00053FDD3E795F82412214820F04DFDCDE7B7
:1035D00095F819121F4820F047FDC7E7B5F81632D5
:1035E0009FED1D7A1D4807EE903AF8EEE77A67EEF8
:1035F000877AFDEEE77A17EE901A20F035FDB5E7F1
:10360000C02100209C1D0020204C00201C4C0020CC
:10361000EC470020605C0020789103088491030847
:103620009091030868910308349103082C910308D2
:103630003C910308489103080C9103081891030872
:10364000309603081C96030800960308F0950308BB
:10365000DC950308CC9503080000C842BC9503081C
:10366000B5F80A22B5F80612C74820F0FDFC7DE740
:10367000B5F80822B5F80412C44820F0F5FC75E747
:1036800095F80112C24820F0EFFC6FE795F80012A0
:10369000C04820F0E9FC69E795F8FF11BE4820F02A
:1036A000E3FC63E795F84D12BC4820F0DDFC5DE7D4
:1036B00095F84C12BA4820F0D7FC57E7742303FB67
:1036C0000252B848D2F8681420F0CEFC4EE77423BA
:1036D00003FB0252B448D2F8641420F0C5FC45E75D
:1036E000A968B24820F0C0FC40E795F8F911B0484D
:1036F00020F0BAFC3AE7D5ED367A9FEDAE7AAE48C7
:1037000067EE877AFDEEE77A17EE901A20F0ACFCB0
:103710002CE7B5F8D210A94820F0A6FC26E795F8CA
:10372000D410A74820F0A0FC20E795F8D510A548B4
:1037300020F09AFC1AE795F86C12A34820F094FC4C
:1037400014E7B5F88612A14820F08EFC0EE774212C
:1037500001FB02F203EB430302EB83032B449C487F
:1037600093F8881420F080FC00E7742101FB02F23A
:1037700003EB430302EB83032B44964893F8861430
:1037800020F072FCF2E695F8F811934820F06CFCFA
:10379000ECE695F8FE11914820F066FCE6E6904BC9
:1037A0009048996C20F060FCE0E68F4B1B681A058E
:1037B0007FF5DCAEB5F94022B5F942128B4820F016
:1037C00053FCD3E6B4F85010894820F04DFCCDE608
:1037D00095F83B3295F83D2295F83C12854820F04B
:1037E00043FCC3E62369D90400F163840C236363BB
:1037F000BCE6814B8148198920F036FCB6E674237B
:1038000003FB02527E48D2F8801420F02DFCADE676
:10381000742303FB02527B48D2F87C1420F024FC72
:10382000A4E6742303FB0252774892F8791420F03F
:103830001BFC9BE6742303FB0252744892F8781435
:1038400020F012FC92E6742303FB02527048D2F877
:10385000741420F009FC89E6742303FB02526D48BE
:10386000B2F8721420F000FC80E6742303FB0252CD
:10387000694892F86E1420F0F7FB77E6742303FB97
:103880000252664892F86D1420F0EEFB6EE6742347
:1038900003FB0252624892F86C1420F0E5FB65E6E7
:1038A000742303FB02525F4892F8601420F0DCFBA3
:1038B0005CE6742303FB02525B48B2F85E1420F00E
:1038C000D3FB53E6742303FB02525848B2F85C144E
:1038D00020F0CAFB4AE6742303FB02525448B2F8B4
:1038E0005A1420F0C1FB41E6742303FB02525148F5
:1038F000B2F8581420F0B8FB38E6742303FB0252E8
:103900004D4892F8561420F0AFFB2FE6742101FBCE
:1039100002514A4891F8553491F84B2491F84114DA
:1039200020F0A2FB22E6742303FB0252444892F8E3
:10393000401420F099FB19E6742101FB0251414823
:1039400091F8533491F8492491F83F1420F08CFBFE
:103950000CE6742101FB02513B4891F8523491F876
:10396000482491F83E1420F07FFBFFE5742101FB11
:103970000251364891F8513491F8472491F83D149A
:1039800020F072FBF2E500BFA495030890950308B0
:103990007C950308689503085C9503084C9503081B
:1039A000509503083895030828950308F4960308F2
:1039B000E49603080000C842CC960308B8960308B2
:1039C000A09603088896030870960308509603088B
:1039D000A89203089C92030884920308709203083B
:1039E0003443002064920308404C002050920308A6
:1039F0004492030828920308CC2100200C9203086B
:103A000014950308FC940308E4940308CC94030879
:103A1000B4940308989403088494030868940308F2
:103A200050940308349403081C9403080894030872
:103A3000F8930308E8930308D0930308C09303089E
:103A4000B4930308A09303088C93030878930308A6
:103A5000742101FB0251804891F8503491F84624BA
:103A600091F83C1420F000FB80E5742101FB025129
:103A70007A4891F84F3491F8452491F83B1420F09E
:103A8000F3FA73E5742101FB0251754891F84E3445
:103A900091F8442491F83A1420F0E6FA66E574218E
:103AA00001FB02516F4891F84D3491F8432491F88D
:103AB000391420F0D9FA59E5742101FB02516A4802
:103AC00091F84C3491F8422491F8381420F0CCFA53
:103AD0004CE5742103EB430301FB02F101EB83018D
:103AE0002944624891F88D3491F88C2491F88B1414
:103AF00020F0BAFA3AE5742101FB02F203EB43032A
:103B000002EB83032B445A48B3F8901420F0ACFA2C
:103B10002CE5742101FB02F203EB430302EB830368
:103B20002B44544893F88E1420F09EFA1EE574211D
:103B300001FB02F203EB430302EB83032B444E48E9
:103B400093F88A1420F090FA10E5742101FB02F238
:103B500003EB430302EB83032B44484893F8891497
:103B600020F082FA02E5742101FB02F203EB430329
:103B700002EB83032B44424893F88F1420F074FA2D
:103B8000F4E4742101FB02F203EB430302EB830331
:103B90002B443C4893F8871420F066FAE6E4B5F825
:103BA000CE10394820F060FAE0E4B5F8CC10374880
:103BB00020F05AFADAE495F8402695F83F16344892
:103BC00020F052FAD2E43349334820F04DFACDE4E4
:103BD000324B334A19881288324820F045FAC5E43E
:103BE0004FF07E51304820F03FFABFE49CF81810A7
:103BF00011F0060F00F079812C4B9CF8281001324F
:103C000003EB020A002900F08F81D8F800106263EC
:103C10000139013FC8F800107FF43FAB2349059BF1
:103C20000A4492F82820002A7FF4C0A8FFF73ABB84
:103C30001F4F3B7D052B3FF6B5A801A252F823F09C
:103C4000712D0008A52D0008493E00080D3D000813
:103C50005B3D0008B93E00086893030858930308C9
:103C60004893030834930308209303081093030830
:103C7000FC920308EC920308E0920308D492030834
:103C8000C4920308B4920308D8910308C8910308AA
:103C9000B4910308446D0020A49103086E5C0020D9
:103CA000745C0020F8910308E8910308E8670308B2
:103CB00058820020796891F91A305C1C0AD0C54AF4
:103CC00003F5817302EB0313FF20DA796FF300022F
:103CD000DA71887691F91B30581C15D0BD4C03F56C
:103CE000817304EB031204EB0314D279E379C2F37A
:103CF0004502012AC6BF02F1FF32D2B20022FF20E4
:103D000062F34603E371C87603233B75B248037838
:103D1000002B7FF447A87C68002C00F08D8194F87C
:103D20002830002B7FF43EA82838442221462FF06B
:103D300025FE23787BB194F8282062B9A3686168D6
:103D4000E2628B4238BF0B460322A36084F828202E
:103D5000204617F0C9FA00237B603C69DFF894E243
:103D6000DFF894B29D4BDFF89492DFF8948201342F
:103D70000594AEFB044C059CABFB044B059C0FCBA0
:103D8000A9FB0449059C4FEADC0CA8FB0448AEFBE8
:103D90000C4A4FEADA0A0AEB8A040DF1200AAAE873
:103DA00007004FEA5B1B4FEA58384FEA9919AEFB00
:103DB0000B21AEFB0902AEFB080EACEB4400059CE8
:103DC0008AF800300CEB8C0CA4EB4C0C41F2A403F1
:103DD000C908D2084FEADE0E7E4C01EB810102EBEE
:103DE00082020EEB8E0EABEB4101A9EB4202A8EB77
:103DF0004E0E14F8038001F1300B303002F1300127
:103E00000CF1300C0EF1300201238DF826008DF8F4
:103E100027C08DF825B08DF824108DF823203B7530
:103E2000B8F1000F00F0B08041F2E802A25C002A75
:103E300000F0AB8041F22C13E35C002B00F03781E3
:103E400004233B75FEF7AEBFDFF8B891DFF8B88109
:103E5000DFF8B8A1786807AA494617F0A1F9012848
:103E600041464FF003027EF49DAF079C2046002C94
:103E70003FF420AF2378002B3FF41CAF32F05CF905
:103E8000032251460028E5D104F1080032F054F92C
:103E900003460028DED154F8030F089022798DF8EC
:103EA000242008A88DF825302FF040FD3B6998426A
:103EB00000F282803B61CDE795F84136FFF727B9E4
:103EC00095F84136002B39D0022B7EF481AF18F0E3
:103ED000DDF800283EF466AF0A234FF480523370B9
:103EE000E28795F84136FEF75FBFD8F800103C4BEB
:103EF00001320139013F03EB020C6263C8F8001084
:103F00003FF48CAE9CF8281000297FF49DA9FFF7A0
:103F1000C8B9344995F841364A634FF0FF3007225B
:103F200088633270FEF740BF0122604608A920F086
:103F300025FE626B95F84136FFF771B92A4A106881
:103F400003685B699847C4E7274A284910684F68A7
:103F5000B84200F0C3800F69B84200F0BD80CF695D
:103F6000B84200F0B7808F6AB84200F0A98094F898
:103F7000D8110020022910607FF430A91CF04BFFFB
:103F800095F84136FFF72AB9434603EB031304EBD8
:103F9000830000F58550164B009308A93C2320228E
:103FA000043017F0E1FFFEF7FDBE0F4A106803680A
:103FB0005B699847FFF70AB908A82FF0B7FC0346DA
:103FC00078E707490A4492F82820002A7EF4ECAEEC
:103FD000FFF768B9347000201482002000970308AE
:103FE000E86703089C1D002070820020EC47002039
:103FF0001D340208CDCCCCCC1F85EB51D34D6210C3
:104000005917B7D160820020049103080891030872
:10401000134603EB031304EB830000F58550414B7B
:104020000093102213234049043017F09DFFFEF740
:10403000B9BE0822FFF7C3B92FF022FC00283EF4D6
:10404000B1AE7C68002C7FF474AE84E645201FF08E
:1040500039FFFF201FF036FF95F84136022B47D07D
:10406000324A334D45219046D8F8000003681B685A
:10407000984715F8011F0029F6D100201FF022FFF4
:10408000FEF719BF04222B4B2A705B68002B7EF4CD
:104090009BAEFFF7D5B904222A70274BF5E704221F
:1040A0002A70264BF1E70422254B2A70EDE7022304
:1040B0006BE795F8381223481FF0D6FFFFF756BA82
:1040C000032707EB470701EB87010027C7620F8132
:1040D0004F604CE70227F4E70127F2E71F46F0E7BD
:1040E0000222D0E70222D7E70222D9E70222DBE749
:1040F000154B1868037E13F0060FBED090F82830D9
:10410000002BBAD10A220A4920F038FDB5E7022374
:104110007FE70322B7E70322BEE70322C0E70322BB
:10412000C2E700BFB9340208FC9003087082002087
:10413000F09003081048002004480020F8470020B1
:10414000EC47002018920308588200202DE9F04720
:104150004D4D4E4FAB6943F00103AB616B6982B0CB
:104160004FF0904443F400336B6100264FF0010898
:104170004FF48059694620464FF0030ACDF800906D
:104180008DF805A08DF804808DF806808DF8076005
:1041900015F0B8FCA4F82890C82011F047F8C4F82E
:1041A00018906B6943F400336B6120464FF4C053A1
:1041B0004FF00209694600938DF805A08DF806605E
:1041C0008DF807608DF8049015F09CFC636A87F801
:1041D000E68123F470436362636A2D4A43F46043CB
:1041E0006362636A23F470236362636A4FF480201E
:1041F00043F46023636212211060082307F5F07016
:10420000C7F8E01187F8E5312AF09CFC214B224ADF
:104210001E60EB692149DFF8A8E02148214C82F8B3
:10422000089043F40003EB610B68CEF800101E49C0
:104230000160226098471D4B1D4ADA6068461423CE
:104240008DF800308DF801908DF802608DF80380B4
:104250002AF06EFB9DF803308DF801802A228DF83C
:1042600002608DF800205BB9124B4FF48062C3F8F6
:104270008420114B1148C7F8E83102B0BDE8F0873F
:1042800068462AF055FBF4E7001002409C1D002010
:1042900014040140D80042426C410020541B00200D
:1042A000EC410020604100200C00002000ED00E007
:1042B0000005FA0500E100E0E86A0308841F002019
:1042C000F04100200148FCF75DB900BFCC5600204A
:1042D0000148FCF757B900BF984700200148FCF798
:1042E00051B900BF44470020F0B5064683B00D46E3
:1042F0000024012714E003290CBF03220122C3F389
:10430000011E6946C3F3810330468DF805208DF800
:1043100006E08DF8073015F0F5FB0134102C0FD0B6
:104320002B8807FA04F21342F7D0AB78E9780092B1
:10433000022903F003028DF80420DCD10A46DEE7EF
:1043400003B0F0BD70B50F4C0F4DC0EBC00004EBD7
:104350008004686926693043686182B09209667B8F
:10436000A1600025012101A863618DF804608DF82A
:1043700005208DF806508DF807102AF0D9FA02B002
:1043800070BD00BF5815002000100240074BC0EB65
:10439000C00030B403EB8000054C056963692B4312
:1043A00063610176427630BC704700BF581500202B
:1043B000001002400348D0F83C3113B100F59A7068
:1043C00018477047581500200348D0F8203113B122
:1043D00000F58C7018477047581500200348D0F836
:1043E00004310BB1FC301847704700BF581500204E
:1043F0000348D0F8E8300BB1E0301847704700BFF1
:10440000581500200348D0F8CC300BB1C430184701
:10441000704700BF581500200348D0F8B0300BB1EA
:10442000A8301847704700BF581500200348D0F83F
:1044300094300BB18C301847704700BF58150020DE
:104440000248836F0BB17030184770475815002031
:104450000248C36D0BB154301847704758150020FF
:104460000248036C0BB138301847704758150020CC
:104470000248436A0BB11C3018477047581500209A
:104480000248836803B11847704700BF58150020E1
:104490001749184B184A194810B4D1F8884044F409
:1044A0007004C1F888401C6844F001041C605C681A
:1044B00022405A601A6822F0847222F480321A6014
:1044C0001A6822F480221A605A6822F4FE025A60A6
:1044D000DA6A22F00F02DA621A6B002410404FF001
:1044E000006218639C608A605DF8044B704700BFEF
:1044F00000ED00E0001002400CC07FF8CCFC00FF93
:104500002DE9F04F0F46B0F908102DED028B3981DF
:10451000C9B24B1E8BB01546FD2B00F20081DFE8BF
:1045200013F07D037203AB036303D00AFE00FE00A9
:10453000FE00FE00BE0AFE00FE00FE00FE00FE00C1
:10454000FE00FE00FE00FE00FE00FE00FE00FE007B
:10455000FE00FE00FE00FE00FE00FE00FE00FE006B
:10456000FE00FE00970AFE008E0AFE007A0AFE0098
:10457000600AFE005A0AFE000D0AFE00E309FE0072
:10458000D709FE00D109FE00A509FE00400BFE0080
:104590003303FE002E033F04FE00340BFE00FE003A
:1045A000270BFE00F90AFE00F20A1F039009FE0025
:1045B000FE008609FE006409FE009804FE007104F6
:1045C0005704FE004704FE008F02FE00FE00FE00BE
:1045D000B804FE003505FE00EC04FE00C705FE0031
:1045E000B605FE00FE00FE009E056605E806D7063D
:1045F0008E067C06590643062B061E060F04D603BC
:10460000BC03FE000609FC08C008B408FE008B08C5
:104610003108FE00FE00FE001D080108EF07B0078C
:10462000FE00FE00FE00FE00FE00FE00FE00FE009A
:10463000FE00FE00FE00FE00FE00FE00FE00FE008A
:10464000FE00FE00FE00FE00FE00FE006F07FE0002
:10465000FE00FE00FE00FE00FE00FE00FE00FE006A
:104660005C07FE00FE00FE001C07FE00FE00FE00D0
:10467000FE00FE00FE00FE00FE00FE00FE00FE004A
:10468000FE00FE00FE00FE00FE00FE00FE00FE003A
:10469000FE00FE00FE00FE00FE00FE00FE00FE002A
:1046A000FE00FE00FE00FE00FE00FE00FE00FE001A
:1046B000FE00FE00FE00FE00FE00FE00FE00FE000A
:1046C000FE00FE00FE00FE00FE00FE00FE00FE00FA
:1046D000FE00FE00FE00FE00FE00FE00FE00FE00EA
:1046E000FE00FE00FE00FE00FE00FE00FE00FE00DA
:1046F000FE00FE00FE00FE00FE00FE00FE00FE00CA
:10470000920B600BFE00FE00FE00FE00FE00FE00AD
:10471000FE00FE00FE00FE00FE00FE00540BF52928
:10472000044600F0C2817629236800F06481656840
:104730000B39ED1AEF2900F2B481DFE811F00F0C0C
:10474000B201B201B201B201B201B201B201B201D1
:10475000B201B201B201B201B201B201B201B201C1
:10476000B201B201B201B201B201B201B201CB0B8E
:10477000B201020CB201AA0EB201BE0EB201D80EF5
:10478000B201A70AB201030BB2011C0BB201300B3C
:10479000B2013A0BB2018901B201370CB201B20188
:1047A0005301B201590CB201B201690CB201760C8D
:1047B000B201B201B201B201B201B201A70CB20161
:1047C000AE0CB201D40CB201B201FD0CB201170D56
:1047D000B201B201B201B201B201F000B201300D7A
:1047E000B201630DB201870DB201FE0FB201B20139
:1047F000B201B201B201B201B201B201B201B20121
:10480000B201B201B201B201B201B201B201B20110
:10481000B201B201B201B201B201B201B201B20100
:10482000B201B201B201B201B201B201B201B201F0
:10483000B201B201B201B201B201B201B201B201E0
:10484000B201B201B201B201B201B201B201B201D0
:10485000B201B201B201B201B201B201B201B201C0
:10486000B201B201B201B201B201B201B201B201B0
:10487000B201B201B201B201B201B201B201B201A0
:10488000B201B201B201B201B201B201B201B20190
:10489000B201B201B201B201B201B201B201B20180
:1048A000B201B201B201B201B201B201B201B20170
:1048B000B201B201B201B201EB0D0B0E390EB20121
:1048C0001310C90DF00F8D0FE10FE20E150F290F18
:1048D000320FB201510EB201B2015F0E730E8D0E96
:1048E000950E6A0BB201B201B201B201B201B2017E
:1048F000B201B201B201B201B201B201B201B20120
:10490000B201B201B2017B0BB201B2018A0BB2015A
:10491000B201B201B201B201B201B201BE0B204636
:104920002BF082FF054608F065FAFF285AD00AA945
:10493000002301F8263DEE080DF101008DF801304D
:10494000013622F035FF9DF80130F6B205F007057B
:10495000B34205F1010503D19DF80230AB420ED000
:10496000B74B1B685BB11A79B24208D35A79AA4295
:1049700005D31B68DB6813B1294630469847236886
:104980006268D21A012A2DDD5A1C0AA82260002270
:104990001D7800F8252D2CF081FA9DF80330AB42EC
:1049A0000AD0A74B1B683BB19A79AA4204D31B6873
:1049B0001B690BB12846984723680AA85A1C226035
:1049C00000221C7800F8242D2CF074FA9DF8043095
:1049D000A34207D09A4B1B6823B11B685B690BB1DC
:1049E0002046984701231A4618467A810BB0BDEC41
:1049F000028BBDE8F08F5A1C22601B78002B01F05F
:104A0000FF86102B07BF8F4A92E812000024214630
:104A10003A68501C3860137038462BF011FF21465D
:104A200038462BF00DFF884B384619682BF008FFED
:104A3000002138462BF01CFF002138462BF018FFD0
:104A4000396800204A1C01233A601A460870CBE7F7
:104A50007E4AA2FB0512A91A02EB51029208C2EB90
:104A6000C201691A1DD1D2B202F1FF385FFA88F88B
:104A7000002AB7D0DFF8F8A108F101080E465A1C49
:104A8000DAF80090226093F9001000254B4693F964
:104A900002208A4203F1080301F0EF860135042D5C
:104AA000F5D14FF0FF331A469EE794E80C0093428D
:104AB00040F08780664BFF2283F868204FF00009A2
:104AC000644C18F0A5FB49463022634884F80090F6
:104AD00031F08BFA8DF804909DF804300B2B01F225
:104AE0007387DFF890815C4E4B469DF8042002EB03
:104AF000820208EB8202127BE2B19DF8042002EBF5
:104B0000820208EB8202202112699AB19DF80420EA
:104B100002EB820208EB8202106946F823000CF0D7
:104B200051FD237856F823000CF00EFF2378013353
:104B3000DBB223709DF804200132D2B28DF804203C
:104B40009DF804200B2AD0D93A68511C39601370A3
:104B5000002D3FF447AF414B2B6001231A4643E73A
:104B60003F4B03F10B043A6813F8011B501C9C42A5
:104B700038601170F7D1002138462BF061FE00211A
:104B800038462BF05DFE2DE73A68364B501C93F803
:104B90003812386011703A6893F83C12501C386033
:104BA00011703A6893F83B12501C386011703A68E3
:104BB00093F83D12501C38601170396893F83F0229
:104BC00040E7531C11462360214811F8023B80F84E
:104BD00068302160527880F86920042B41F21586F4
:104BE000FF2B7FF42DAF69E71F4B191D3A6813F8AF
:104BF000010B541C8B423C601070F7D100213846E9
:104C00002BF036FEEEE6194B191D3A6813F8010B2E
:104C1000541C8B423C601070F7D1E3E63B680022E5
:104C2000591C39601A703A680123D1183960137021
:104C300039681F20CA183A601A460870D4E600BFC7
:104C4000C854002040400020902D00202549922487
:104C5000F41F00209266002050660020CDDF02087D
:104C600084910308F8660020809803087898030868
:104C7000204C0020544600203B680322591C396018
:104C80001A703A680123D118396013703968072007
:104C9000CA183A601A460870A6E6B14E00233A6870
:104CA0003168501CC95C38601170326839681A4428
:104CB000481C927A38600A70326839681A440133A5
:104CC000127D481C0A2B38600A70E8D18AE6A54C90
:104CD0003B682268591C127839601A7023683A6858
:104CE0009978531C3B6000231170226839681A447C
:104CF00001335279481C032B38600A70F5D13B68A8
:104D00002268591C127A39601A703B682268591C53
:104D1000D27839601A703B682268591C1279396060
:104D20001A702368384659892BF0A2FD3B68226827
:104D3000591C527A39601A7023683968587881E6AC
:104D4000894B3A681B888949FF2BA8BFFF23501C59
:104D50003860137009684FF6FF74A142A8BF21465E
:104D600021EAE17189B238462BF082FD804B38464A
:104D700019882BF07DFD7F4B93F84532002B01F015
:104D8000BD857D4B1B6803EB83035900A142A8BF7F
:104D9000214621EAE17189B238462BF069FD21E60E
:104DA000396801200A183A600346024608701BE67B
:104DB0003A68724B501C01213860981D11703A6896
:104DC00013F8011F541C98423C601170F7D109E69A
:104DD0003968684A0123481C38600B70396892F8BA
:104DE0004106CC183C600870396892F83F06CC1830
:104DF0003C600870396892F84006CA183A601A4652
:104E00000870F1E53B6801241A193A601C7017F02C
:104E10007BFA002841F07885594D5A4A0346396893
:104E2000481C38600B703B6841F2B410591C105C90
:104E3000396041F27811187051583846890A2BF0C0
:104E4000FFFCE96B384649082BF0FAFC01231A46AF
:104E5000CAE54D4E3378002B3FF4C4AD454C0025D8
:104E60003B6894F88C22591C39601A7094F88D3282
:104E700003EB830303EB830303F2EE2189B238468D
:104E80002BF0F6FC337801359D4204F10204E7DB98
:104E9000A8E507F0AFFFFF28054601F019850AA92C
:104EA000002401F8264D0DF101008DF8014022F09B
:104EB0007FFC0AA800F8254D2BF0F0FF0AA800F8A7
:104EC000244D2BF0F7FF3B685A1C3A601D703B687D
:104ED0009DF80120591C39601A703B689DF802202A
:104EE000591C39601A703B689DF80320591C3960C1
:104EF0001A7039689DF80400A4E51E4C3B6894F8CC
:104F00000122174D591C39601A702B683846198CCC
:104F10002BF0AEFC2B683846598C2BF0A9FCB4F86A
:104F2000041238462BF0A4FCB4F8061238462BF0D5
:104F30009FFC2B683846998C2BF09AFC2B683846DE
:104F4000D98C2BF095FCB4F8081238462BF090FC65
:104F5000B4F80A1238462BF08BFC01231A4643E5BD
:104F6000F02E0020AC8200203A2200204C220020AB
:104F70002C230020F866002044220020236B002010
:104F8000FC65002034700020A4240020B84E96F860
:104F9000FF31002B01F0A4843B680822591C3960C2
:104FA0001A703B680122991839601A703B6896F8AC
:104FB000D520591C39601A703B6896F8D420591CCA
:104FC00039601A70B6F8D21038462BF051FCDFED7C
:104FD000A97A96ED360A20EE270A2EF0FBFE81B262
:104FE00038462BF045FC396896F803022AE5A24BB7
:104FF0003846B3F858102BF03BFCA04B19883846C4
:1050000089B22BF035FC9E4B1A68C2F3C003C2F381
:1050100080019B0043EA4103C2F340010B43C2F30A
:10502000401143EAC10102F01002114338462BF04F
:105030001FFC13F01DFE014638462BF001FC3B68B7
:105040008B4A581C92F894158E4A38601970118852
:1050500064293846A8BF64212BF00AFCCEE53B68E2
:10506000834A581CE721386019703B6892F8C322C4
:10507000591C39601A703B680022591C3960384647
:105080001A7004212BF0DCFB01231A46ACE43A68C9
:10509000774B501C93F81912386011703A6893F8E6
:1050A0002412501C38601170396893F80F02C9E45B
:1050B000002138462BF0DCFB002138462BF0D8FBD2
:1050C000002138462BF0D4FB3A686F4C0023511C6A
:1050D000396013703A682168501C91F835103860B7
:1050E00011703A682168501C91F8401038601170B6
:1050F0003A682168501C91F84110386011703A6884
:10510000511C396013703A68511C396013703A6849
:10511000511C39601370236893ED120AB2EE048AB1
:1051200020EE080A2EF056FE81B238462BF0A0FB86
:10513000236893ED110A20EE080A2EF04BFE81B28F
:1051400038462BF095FB3B682268591C92F83720B3
:1051500039601A702368396893F8380072E44B4B51
:10516000384619682BF06CFB494B198838462BF0F0
:105170007FFB01231A4637E4464C384621882BF042
:1051800077FB618838462BF073FBB4F90430424951
:10519000DA1781FB0313C2EBA30399B238462BF055
:1051A00067FB01231A461FE43C4B384619882BF055
:1051B0005FFB3B4B384619882BF05AFB394B38685C
:1051C00093F82310421C01F0010101233A601A46B2
:1051D000017009E4344B3A681B783449344C501C54
:1051E00003F00203386013703B680A78591C396079
:1051F0001A70216838462BF023FB616838462BF083
:105200001FFB2C4B384619882BF032FB2A4B3846B3
:1052100019882BF02DFB294BA7E7294E3378002B5B
:105220003FF4E0AB274D002435F8021F38462BF041
:105230001FFB337801349C42F6DBFFF7D3BB224CD3
:10524000224D04F1A00607E014342BF011FBA64216
:1052500005F102053FF4C6AB237B38461946002B07
:10526000F2D0288823F0C0FB01463846ECE700BFA7
:10527000F86600200000C842E01600209866002072
:105280005022002070380020F02E00200023002043
:10529000102200203422002067666666D02200209B
:1052A000D2220020F41F0020542200205A22002085
:1052B0005C2200205822002056220020D424002006
:1052C000A4240020AE240020544600202C570020A7
:1052D000C94A3B68146850689168D268DA601C60FB
:1052E000586099603A68012310323A601A46FFF715
:1052F0007BBBC24C2289B2F5007F04F1300594BF1C
:10530000012604263C3455F8041B91FBF6F138467F
:1053100089B22BF0ADFAAC42F5D1B94C04F10C06D0
:10532000A4F14C05B4EC010AD5ED067A80EE270A0B
:105330002EF050FD81B238462BF09AFAA642F1D1F8
:10534000B04C04F10C0554F8041B384689B22BF01C
:105350008FFAAC42F7D1FFF745BB3B68AA4C591C0A
:1053600094F8242039601A7094F82430002B3FF40C
:1053700039AB04F1270604F1370504F1470004F1C5
:10538000570100233A6816F801EF02F1010CC7F843
:1053900000C082F800E03A6815F801EF02F1010C54
:1053A000C7F800C082F800E03A6810F801EF02F197
:1053B000010CC7F800C082F800E03A6811F801EF6C
:1053C00002F1010CC7F800C082F800E094F8242034
:1053D00001339342D6DBFFF705BB8C4B3846196887
:1053E0002BF02EFA8A4B384619682BF029FA894B94
:1053F000384619682BF024FA01231A46FFF7F4BA4D
:10540000854B3846B3F858102BF032FA834B198885
:10541000384689B22BF02CFA814B1A68C2F3C003CC
:10542000C2F380019B0043EA4103C2F340010B43F6
:10543000C2F3401143EAC10102F0100211433846A1
:105440002BF016FA13F014FC014638462BF0F8F94D
:105450003B68744A581C92F89415734A3860197066
:10546000118864293846A8BF64212BF001FA3B68F3
:105470006E4A581C03213860197039681078FFF79C
:10548000E1BADFF8B0E10025EEB2714600233A68D8
:10549000501C386016703A68501C386013703A68B7
:1054A00011F8010F0133541C062B3C601070EED133
:1054B0000135062D0EF1060EE6D15D4900233A684E
:1054C000501C386015703A68501C386013703A6888
:1054D00011F8010F0133541C0B2B3C601070EED1FE
:1054E0003B68504A581C0721386019703B680021FE
:1054F000581C38601970396892F82804FFF7A2BA6E
:105500003A68484B501C93F8FC11386011703A68A7
:1055100093F81812501C38601170396893F80E0215
:10552000FFF790BA3A683F4B501C93F84C12386022
:1055300011703A6893F84D12501C386011703A6837
:1055400093F84E12501C38601170B3F8EE103846C4
:105550002BF08EF901231A46FFF746BA314C384634
:10556000B4F8E8102BF084F9B4F8EA1038462BF0C0
:105570007FF9B4F8EC1038462BF07AF901231A467B
:10558000FFF732BA274E00253446B4F87211384678
:105590002BF06EF9B4F8741138462BF069F9B4F8B1
:1055A000761138462BF064F93B6894F87821591C41
:1055B00039601A703B6894F87921591C39601A7067
:1055C0003B6894F87A21591C39601A703A6894F84B
:1055D0007B11C5EBC503501C06EB4303386011700B
:1055E000D3F87C11013538462BF02AF9082D04F147
:1055F0000E04CAD1FFF7F6B900650020CC210020C7
:1056000080430020A42E0020F41F0020ACF7FF1FD1
:10561000B0F7FF1FB4F7FF1FE016002098660020C8
:1056200050220020F866002070380020C882002038
:10563000136B0020EF6A0020B84C2378002B3FF456
:10564000D1A9DFF8E0E2E61C0025002316F8010FDF
:10565000B34A194604E00133202B10D012F80C1C79
:10566000884202F10C02F6D1DBB203EB43033A6845
:105670000EEB8303511C93F8383039601370237894
:1056800001359D42E1DBFFF7ADB9A64952233A68E7
:10569000501C3860137011F8013F002BF7D1FFF751
:1056A000A1B99E4C2378002B3FF49CA99D4E012567
:1056B000DFF884924FF00108002319F8010F984A8F
:1056C000194605E00133202B01F08D8012F80C1CE7
:1056D000814202F10C02F5D1DBB203EB430306EB8E
:1056E0008303D3F834A050462BF048FE002D41F040
:1056F0007A8000280ADD53460AEB000E3A6813F858
:10570000011B501C734538601170F7D12378434555
:105710007FF768A908F10108CEE701233A68511C18
:10572000396013700133092BF8D1FFF75BB97E4C58
:105730003846B4F87A122BF09BF8B4F8CC103846FF
:105740002BF096F8B4F8CE1038462BF091F8B4F858
:10575000D01038462BF08CF8B4F8C81238462BF02D
:1057600087F83B6894F85E227049581C38601A70BC
:105770003B680022581C38601A703B6894F85F023E
:105780005D1C3D6018703B6894F845025D1C3D60EF
:1057900018703B6894F877025D1C3D6018703B6898
:1057A000581C38601A70B4F90C3281FB0321DB17E6
:1057B000C3EBA10189B238462BF05AF83B6894F844
:1057C0003822591C39601A703B6894F83C22591CE5
:1057D00039601A703B6894F83B22591C39601A7082
:1057E000396894F83D02FFF72DB93B684E4C591CBF
:1057F00094F8C62239601A703B6894F8C722591C85
:1058000039601A70B4F8C81238462BF031F83B688A
:1058100094F8CA22591C39601A70B4F8CC12384670
:105820002BF026F8396894F8CE02FFF70BB9404BFD
:105830003846B3F848102BF01BF801231A46FFF73F
:10584000D3B83B6800245A1C3A6021461C70384685
:105850002AF0F6FF214638462AF0F2FF2146384664
:105860002AF0EEFF01231A46FFF7BEB82E4B03F1D4
:105870005A043A6893F8EA15501C386011703A6877
:1058800093F8E515501C386011703A6893F8E615E6
:10589000501C386011703A6893F8E715501C386056
:1058A00011703A6893F8E815501C386011703A6826
:1058B00093F8E9150633501C9C4238601170D8D11A
:1058C000FFF790B8184B396893F87702FFF7BAB82A
:1058D000184C04F1800554F8041F38462AF0B0FF34
:1058E000AC42F8D1FFF77EB80F4C04F14005B4F894
:1058F000B81338462AF0BCFF3B6894F8BA23591C09
:1059000039601A703B6894F8BB230434591CA542D3
:1059100039601A70EBD1FFF765B800BFF41F0020A3
:105920004C6B0308106B0308F86600206766666618
:10593000344300202C6A0020F71F0020C94C3B682C
:1059400094F86C22591C39601A70B4F87E123846EB
:105950002AF08EFFB4F87A1238462AF089FFB4F89C
:105960007C1238462AF084FF3B6894F87522591C53
:1059700039601A70B4F8881238462AF079FFB4F802
:105980008A1238462AF074FF3B6894F88022591C2A
:1059900039601A703B6894F88222591C39601A7079
:1059A000B4F8861238462AF063FF3B6894F86F22F9
:1059B000591C39601A70D4F8701238462AF040FF2A
:1059C0003B6894F87422591C39601A70396894F84D
:1059D0008302FFF737B8A34B396893F8C302FFF788
:1059E00031B8A04C3846B4F840122AF041FFB4F860
:1059F000421238462AF03CFF3B6894F84422591C76
:105A000039601A70B4F8461238462AF031FF012383
:105A10001A46FEF7E9BF934C3846B4F8E4112AF071
:105A200027FFB4F8E81138462AF022FFB4F8EC1149
:105A300038462AF01DFF01231A46FEF7D5BF894BD1
:105A4000384699682AF0FCFE01231A46FEF7CCBFBF
:105A5000844B854D03F1500493F89525396802EB8A
:105A6000420205EB8202481C92F8382038600A7026
:105A70003A6893F89615501C386011703A6893F89C
:105A80009715501C386011703A6893F898150433D4
:105A9000501C9C4238601170DED1FEF7A3BF7348E2
:105AA0002BF06CFC011E7EF79DAF704B19443A68D9
:105AB00013F8010B541C8B423C601070F7D1FEF7B9
:105AC00091BF6B4B03F10B043A6813F8011B501C98
:105AD000A34238601170F7D1664B03F108013A68B0
